:100000000C9481000C94A9000C94A9000C94E708AE
:100010000C94E7080C94E7080C94A9000C947E0A51
:100020000C94A9000C94A9000C94A9000C94A900AC
:100030000C94A9000C94A9000C94A9000C94A9009C
:100040000C9445080C94A9000C94B5080C948F08E6
:100050000C94A9000C94A9000C94A9000C94A9007C
:100060000C945F090C94A900036EDB363D9A9999B4
:10007000993DABAAAA2A3E000000803F072C7AA532
:10008000BA6CC590DA3B9365FC8BBC53F810FD3C11
:100090005692834DBD879D3AB63DCBC9BF5BBE73BB
:1000A000DA0FC93F00000000240027002A000000EA
:1000B0000008000201000003040700000000000027
:1000C00000000000000023002600290000000000BE
:1000D000250028002B000404040404040404020284
:1000E00002020202030303030303010204081020B7
:1000F0004080010204081020010204081020FB0ABD
:10010000B31611241FBECFEFD8E0DEBFCDBF11E084
:10011000A0E0B1E0ECE1F7E302C005900D92A43657
:10012000B107D9F723E0A4E6B1E001C01D92A43BDA
:10013000B207E1F710E0C0E8D0E004C02197FE016B
:100140000E94561ACF37D107C9F70E94210C0C9490
:10015000811B0C9400008F929F92AF92BF92CF921E
:10016000DF92EF92FF92CF9320917D0330917E0337
:1001700082179307E8F54B01AA24BB24C82DC52E8E
:10018000D62EE72EFF24BC2DA42F209183032223FB
:1001900061F0829E40011124C92D2C9D6001112423
:1001A000BD2D249FF0011124AF2FE0918903E09031
:1001B0008403F090850330918603E31323C09C01F0
:1001C000220F331F820F931F8E0D9F1DE091860318
:1001D000E80FF92FF11DC083E0918703E80FF92F95
:1001E000F11DB08320918803820F911DFC01A08333
:1001F000CF91FF90EF90DF90CF90BF90AF909F9006
:100200008F900895880F991F880F991F8E0D9F1D3D
:10021000472F552766277727222349F030E0249F70
:100220007001259FF00C349FF00C11244F2DE80F26
:10023000F92FF11D4083CACF9091D1028091D00255
:100240002FEF3FEF981748F4E92FF0E0E055FD4F0E
:10025000208130E09F5F9093D102C9010895909171
:10026000D1028091D0022FEF3FEF981748F4E92F89
:10027000F0E0E055FD4F208130E09F5F9093D10288
:10028000C9010895833081F028F4813099F08230DB
:10029000A9F008958730A9F08830C9F08430B1F40E
:1002A000809180008F7D03C0809180008F77809344
:1002B0008000089584B58F7784BD089584B58F7DBF
:1002C000FBCF8091B0008F778093B000089580912C
:1002D000B0008F7DF9CF1F93CF93DF93282F30E0AD
:1002E000F901E255FF4F8491F901E651FF4FD49196
:1002F000F901EA52FF4FC491CC23A9F0162F8111C6
:100300000E944201EC2FF0E0EE0FFF1FE453FF4F7D
:10031000A591B4918FB7F894EC91111108C0D095C4
:10032000DE23DC938FBFDF91CF911F910895DE2BE9
:10033000F8CFCF93DF9390E0FC01E651FF4F24917B
:100340008A529F4FFC0184918823C9F090E0880F66
:10035000991FFC01EC55FF4FA591B491FC01E453AA
:10036000FF4FC591D49161110DC09FB7F8948C9146
:10037000209582238C938881282328839FBFDF9137
:10038000CF910895623051F49FB7F8943C91822F39
:10039000809583238C93E8812E2BEFCF8FB7F89431
:1003A000EC912E2B2C938FBFEACF3FB7F89480911E
:1003B0005C0290915D02A0915E02B0915F0226B551
:1003C000A89B05C02F3F19F00196A11DB11D3FBF8D
:1003D000BA2FA92F982F8827BC01CD01620F711D5C
:1003E000811D911D42E0660F771F881F991F4A9556
:1003F000D1F708950F931F93CF93DF93CDB7DEB757
:1004000029970FB6F894DEBF0FBECDBF809184034D
:1004100090918503892B09F47CC00E94D50100913D
:100420008A0310918B0320918C0330918D03601708
:1004300071078207930740F460938A0370938B03DC
:1004400080938C0390938D0300918A0310918B030A
:1004500020918C0330918D03601B710B820B930BE9
:100460006C32714081059105C0F2F89480917F0350
:10047000909180039A838983E0918403F0918503AE
:10048000DF0111968081898790917B03E0918E0333
:10049000F0918F0380919003992309F445C09081D6
:1004A000982B98879081809589238F838F818C8367
:1004B00088E08B8358856F8149853B812C818981B8
:1004C0009A81508347FD252F3A952083262F39F0B6
:1004D000441F00C000006083000000C0F2CF38E07D
:1004E0004D9160830000019761F7F0938F03E093D3
:1004F0008E0349873B832C839A83898378940E9457
:10050000D50160938A0370938B0380938C0390933F
:100510008D0329960FB6F894DEBF0FBECDBFDF91D5
:10052000CF911F910F9108959081982B988790817A
:10053000809589238F838F818E8388E08D83588572
:100540006F8149853D812E8189819A81508347FD44
:10055000252F00C000C0208300C000C000C000C024
:1005600000C060830000262F3A9541F0441F000030
:1005700000C000C000C000C000C0E8CF38E04D910E
:1005800000C0608300C0019709F7F0938F03E093E8
:100590008E0349873D832E83AFCF2FB7F8946091A8
:1005A00058027091590280915A0290915B022FBFBC
:1005B000089508950895AF92BF92CF92DF92EF927F
:1005C000FF920F931F93CF93DF936C017B018B01FD
:1005D000040F151FEB015E01AE18BF08C017D1074D
:1005E00059F06991D601ED91FC910190F081E02DD7
:1005F000C6010995892B79F7C501DF91CF911F912C
:100600000F91FF90EF90DF90CF90BF90AF90089543
:10061000FC01538D448D252F30E0842F90E0821B08
:10062000930B541710F0CF96089501970895FC018D
:10063000918D828D981761F0A28DAE0FBF2FB11DE5
:100640005D968C91928D9F5F9F73928F90E008953D
:100650008FEF9FEF0895FC01918D828D981731F0F7
:10066000828DE80FF11D858D90E008958FEF9FEF4B
:100670000895FC01918D228D892F90E0805C9F4F21
:10068000821B91098F739927089582ED92E00E9451
:10069000390321E0892B09F420E0822F089580E0BE
:1006A00090E0892B29F00E94450381110C940000F1
:1006B0000895FC01A48DA80FB92FB11DA35ABF4FF7
:1006C0002C91848D90E001968F739927848FA68951
:1006D000B7892C93A089B1898C91837080648C93A5
:1006E000938D848D981306C00288F389E02D808154
:1006F0008F7D80830895EF92FF920F931F93CF9386
:10070000DF93EC0181E0888F9B8D8C8D98131AC04C
:10071000E889F989808185FF15C09FB7F894EE8933
:10072000FF896083E889F989808183708064808390
:100730009FBF81E090E0DF91CF911F910F91FF90DB
:10074000EF900895F62E0B8D10E00F5F1F4F0F7383
:100750001127E02E8C8D8E110CC00FB607FCFACF3E
:10076000E889F989808185FFF5CFCE010E94590380
:10077000F1CFEB8DEC0FFD2FF11DE35AFF4FF0820F
:100780009FB7F8940B8FEA89FB8980818062CFCF75
:10079000682F82ED92E00C947B038EE790E00E943C
:1007A000C80383E090E00E94C80386E090E00E94C6
:1007B000C8038AE090E00E94C8038FEE90E00C949A
:1007C000C803CF93DF93EC01888D8823B9F0AA8901
:1007D000BB89E889F9898C9185FD03C0808186FDFC
:1007E0000DC00FB607FCF7CF8C9185FFF2CF80814B
:1007F00085FFEDCFCE010E945903E9CFDF91CF9164
:1008000008952091F2013091F3012817390771F40E
:100810009091F0018091F101981741F0E091F00181
:10082000F0E0E055FE4F808190E008958FEF9FEF5C
:1008300008950895EF92FF920F931F93CF93DF9344
:10084000DC015C96ED90FC905D97E114F10479F485
:1008500081E090E013969C938E93129790E080E055
:10086000DF91CF911F910F91FF90EF9008955196D6
:10087000ED91FC91529750968C915097982F9095AE
:100880000FB75E962C915E97122F127021FD609526
:10089000F8942081112319F1282B2083E701219757
:1008A000F1F728E0462F50E0308160FF1AC0382B66
:1008B0003083E7012197F1F7BA01759567952150CB
:1008C00089F7112381F08081892380830FBF5C9693
:1008D0008D919C910197F1F781E090E0C1CF2923A0
:1008E000DCCF3923E5CF9081892BEFCF2091F20126
:1008F0003091F3012817390761F48091F1012091BB
:10090000F00190E0805C9F4F821B91098F739927C3
:10091000089590E080E008952091F2013091F30174
:1009200028173907B9F49091F0018091F1019817D7
:1009300089F0E091F001F0E0E055FE4F80812091D8
:10094000F00130E02F5F3F4F2F7333272093F001EA
:1009500090E008958FEF9FEF089520918D01260F6D
:100960003327331F21323105ECF42091AA02FC0118
:1009700090E080E0243069F082E00895A0918D013C
:100980002191AC0143595E4FA40FB52FB11D2C939B
:100990000196861798F380918D01680F60938D0101
:1009A00080E0089581E008951092AA0281E080938A
:1009B000A9021092A40261E082E10E946B0161E051
:1009C00083E10E946B01E9EBF0E080818E7F808300
:1009D00080818D7F808388E48093B80085E4809354
:1009E000BC000895CF93DF9391E090936C0188232E
:1009F000B9F0C091B800D091BA008091BC008A7B58
:100A00008093BC0060E082E10E946B0160E083E1C2
:100A10000E946B010E94D404D093BA00C093B80026
:100A2000DF91CF910895CF92DF92EF92FF920F93D3
:100A30001F93CF93DF93D091830281E0D13208F0EE
:100A40009CC0C09182020E94D5016B017C01809103
:100A5000AA0281116CC082E08093AA0281E0809397
:100A6000A9028FEF8093A8021092A702D093A6024A
:100A7000A2E6B2E0E4E8F2E080E0D8138DC0109284
:100A8000A5028091A502CC0FC82BC093A50280912E
:100A9000A402813009F084C01092A4020E94D50102
:100AA0006B017C018091A5028093BB008091AC0218
:100AB0009091AD02A091AE02B091AF02892B8A2B2A
:100AC0008B2BA1F00E94D5010091AC021091AD02D8
:100AD0002091AE023091AF026C197D098E099F09F9
:100AE000061717072807390708F442C08091BC0091
:100AF00083FDD8CF85EC8093BC000E94D5016B01AB
:100B00007C018091AA02823009F44CC08091A80235
:100B10008F3F09F469C08091A802803209F466C051
:100B20008091A802803309F463C084E026C08091DC
:100B3000AC029091AD02A091AE02B091AF02892BB0
:100B40008A2B8B2B09F483CF0E94D5010091AC0234
:100B50001091AD022091AE023091AF026C197D0967
:100B60008E099F09061717072807390708F06FCF66
:100B70008091AB020E94F20485E010926102109213
:100B8000830210926002DF91CF911F910F91FF902D
:100B9000EF90DF90CF9008959D9191938F5F6DCFEF
:100BA00085EEA9CF8091AC029091AD02A091AE02EA
:100BB000B091AF02892B8A2B8B2B09F4A2CF0E9414
:100BC000D5010091AC021091AD022091AE0230919E
:100BD000AF026C197D098E099F09061717072807B0
:100BE000390708F08ECFC4CF80E0C7CF82E0C5CFF1
:100BF00083E0C3CFE091D1028091D002E81730F4B6
:100C0000F0E0E055FD4F808190E008958FEF9FEF79
:100C100008958091D0029091D102891B990B08957B
:100C2000CF92DF92EF92FF920F931F93CF93DF93B8
:100C30007C01CB018A0120916002222389F0EB0123
:100C40006B01C40ED51ECC15DD0569F06991D70185
:100C5000ED91FC910190F081E02DC7010995F3CF52
:100C6000642F0E94AD04C801DF91CF911F910F91B5
:100C7000FF90EF90DF90CF900895CF93DF931F9276
:100C8000CDB7DEB76983209160022223F9F020916D
:100C90008302203258F021E030E0FC0133832283CC
:100CA00090E080E00F90DF91CF91089580916102F4
:100CB000E82FF0E0EE59FD4F998190838F5F80938C
:100CC00061028093830281E090E0ECCF61E0CE018D
:100CD00001960E94AD04F7CF682F8FE693E00C9445
:100CE0003D0690E080E00895AF92BF92CF92DF92F0
:100CF000EF92FF920F931F93CF93DF93F82E880FFD
:100D0000880F9F2D981B0F2D000F0F0D10E0D0E0C6
:100D1000C0E032E0D32ED00E4DEFC42EC90E5EEFF0
:100D2000B52EB90EAA24A394A00EEE24EA94E90EDF
:100D300080917D0390917E03C817D90778F58C2F99
:100D40008F0D853588F4402F411B50E070E060E046
:100D5000BA01552744278E2D810F582BCE010E94B2
:100D6000AB0021961350E4CF8A3A60F44B2D410F2B
:100D700050E070E060E0BA01552744278A2D811BBE
:100D8000482BECCF4D2D411B50E070E060E0762FFA
:100D9000652F542F44278C2D810FF2CFDF91CF91F7
:100DA0001F910F91FF90EF90DF90CF90BF90AF9089
:100DB0000C94FA018EE790E00E94C80382E090E074
:100DC0000E94C8038CE090E00E94C8038FEE90E080
:100DD0000C94C803CF93DF93EC018EE790E00E9460
:100DE000C80384E090E00E94C80383E090E00E9482
:100DF000C80390E080E00E94C803CE010E94C803AF
:100E00008FEE90E0DF91CF910C94C8038F929F9268
:100E1000AF92BF92CF92DF92EF92FF921F93CF9348
:100E2000DF93D82F162F0E94D5016B017C01809192
:100E3000AA02811166C0C12F81E08093AA0280932B
:100E4000A9029FEF9093A8021092A702910F90938E
:100E5000A6028093A5028091A502DD0FD82BD09326
:100E6000A5028091A402813009F082C01092A402F0
:100E70000E94D5016B017C018091A5028093BB008B
:100E80008091AC029091AD02A091AE02B091AF0200
:100E9000892B8A2B8B2BA1F00E94D5018090AC026C
:100EA0009090AD02A090AE02B090AF026C197D0997
:100EB0008E099F0986169706A806B90608F442C04F
:100EC0008091BC0083FDD8CF85EC8093BC000E944C
:100ED000D5016B017C018091AA02813009F44AC0DE
:100EE0008091A702811710F4C091A702A4E8B2E094
:100EF000E0EBF2E080E08C1751F19D9191938F5FD0
:100F0000FACF8091AC029091AD02A091AE02B09167
:100F1000AF02892B8A2B8B2B09F489CF0E94D50134
:100F20008090AC029090AD02A090AE02B090AF0263
:100F30006C197D098E099F0986169706A806B906C1
:100F400008F075CF8091AB020E94F204C0E01092CD
:100F5000D102C093D0028C2FDF91CF911F91FF90CF
:100F6000EF90DF90CF90BF90AF909F908F900895BB
:100F700085EEABCF8091AC029091AD02A091AE0214
:100F8000B091AF02892B8A2B8B2B09F4A4CF0E943E
:100F9000D5018090AC029090AD02A090AE02B090CE
:100FA000AF026C197D098E099F0986169706A8065F
:100FB000B90608F090CFC6CFCF93DF93FC01019024
:100FC0000020E9F73197AF01481B590BBC0182EDB6
:100FD00092E00E94DB02EC0142E050E06EE371E03F
:100FE00082ED92E00E94DB028C0F9D1FDF91CF917A
:100FF0000895813021F481E491E00C94DC07089598
:10100000813051F482E591E00E94DC07809100017B
:10101000909101010C94EA06089585ED8093BC003F
:101020008091AC029091AD02A091AE02B091AF025E
:101030000796A11DB11D23E0B695A79597958795B5
:101040002A95D1F72091BC0024FD03C01092AA027A
:1010500008954091AC025091AD026091AE02709142
:10106000AF02452B462B472B69F30097A105B1052D
:1010700041F02AE22A95F1F700C00197A109B109D0
:10108000E1CF8091AB020C94F2041F920F920FB645
:101090000F9211242F933F938F939F93AF93BF93FE
:1010A0008091580290915902A0915A02B0915B022E
:1010B0003091570223E0230F2D3758F50196A11DDB
:1010C000B11D209357028093580290935902A09328
:1010D0005A02B0935B0280915C0290915D02A091F4
:1010E0005E02B0915F020196A11DB11D80935C026A
:1010F00090935D02A0935E02B0935F02BF91AF91A7
:101100009F918F913F912F910F900FBE0F901F9045
:10111000189526E8230F0296A11DB11DD2CF1F926C
:101120000F920FB60F9211242F933F934F935F931B
:101130006F937F938F939F93AF93BF93EF93FF939F
:1011400082ED92E00E945903FF91EF91BF91AF9120
:101150009F918F917F916F915F914F913F912F91CF
:101160000F900FBE0F901F9018951F920F920FB601
:101170000F9211242F938F939F93EF93FF93E091FE
:10118000E202F091E3028081E091E802F091E9024D
:1011900082FD1BC090818091EB028F5F8F73209145
:1011A000EC02821741F0E091EB02F0E0EE52FD4FCD
:1011B000958F8093EB02FF91EF919F918F912F91EB
:1011C0000F900FBE0F901F9018958081F4CF1F9243
:1011D0000F920FB60F9211242F933F934F935F936B
:1011E0006F937F938F939F93AF93BF93EF93FF93EF
:1011F000E091F201F091F301309749F0A685B785AF
:101200008585968D91FF14C09C918923A1F4FF914F
:10121000EF91BF91AF919F918F917F916F915F916E
:101220004F913F912F910F900FBE0F901F901895E7
:101230009C91892361F7A389B4899C9185898095C4
:1012400089238C93868997890197F1F7608D718D39
:10125000A685B785558538E020E0CB010197F1F7E9
:10126000822F90E095958795282F4C91452309F082
:101270002068315091F7868D81FD20958091F10194
:1012800090E001968F7399273091F001381799F00B
:10129000A091F101B0E0A055BE4F2C938093F101D5
:1012A000828D938D0197F1F7A389B4898C919589EB
:1012B000892B8C93ACCF868D8160868FF1CF1F9266
:1012C0000F920FB60F9211242F933F934F935F937A
:1012D0006F937F938F939F93AF93BF93EF93FF93FE
:1012E0008091B900887F803609F44AC0F0F58832D1
:1012F00009F4A7C018F5803109F49BC0B8F488231D
:1013000009F4F9C0883009F494C0FF91EF91BF91BE
:10131000AF919F918F917F916F915F914F913F918D
:101320002F910F900FBE0F901F901895883109F4E0
:1013300088C0803251F78093A80214C0803409F429
:101340009DC040F48033B9F38833F9F68093A80246
:1013500085ECB0C0803509F485C0883509F496C0A5
:10136000883499F60E940D08D0CF883909F48CC0D2
:1013700038F5883729F050F4883611F0803729F68F
:1013800083E08093AA021092AF0157C0883809F415
:101390007BC0803919F0803809F0B7CF8091AF0158
:1013A000803208F071C0E091AF0181E08E0F809330
:1013B000AF018091BB00F0E0E157FE4F80833DC05C
:1013C000803B39F0E0F4803A09F479C0883A09F0BA
:1013D0009CCF84E08093AA0210928E0110928D011E
:1013E000E091F601F091F701099580918D0181114D
:1013F0000FC081E080938D0110926D0109C0803C87
:1014000009F4A6CF883C09F4A3CF883B09F07DCF2F
:10141000E0918E0181E08E0F80938E01F0E0E35920
:10142000FE4F80818093BB0090918E0180918D0151
:1014300029C08091A5028093BB0085EC8093BC00FD
:1014400064CF9091A7028091A602981758F5E09179
:10145000A70281E08E0F8093A702F0E0EC57FD4FCA
:101460008081E9CFE091A70281E08E0F8093A702EF
:101470008091BB00F0E0EC57FD4F80839091A70274
:101480008091A6029817C8F285E8D8CFE091A7020C
:1014900081E08E0F8093A7028091BB00F0E0EC57B3
:1014A000FD4F80838091A90281115CCF81E0809300
:1014B000A40284EA8093BC001092AA0226CF85EC95
:1014C0008093BC001092AA028091AF01803230F468
:1014D000E091AF01F0E0E157FE4F10826091AF0163
:1014E00070E0E091F401F091F5018FE891E0099549
:1014F0001092AF010ACF1092A80234CF1F920F9220
:101500000FB60F9211242F933F938F939F93809147
:101510006A0190916B01019690936B0180936A012F
:101520002091680130916901281739070CF04FC0EC
:1015300010926B0110926A01809122029091230215
:10154000909369018093680197FF3FC05E9A8091F4
:101550006801909169019195819591099093690134
:101560008093680180916601909167010196909344
:10157000670180936601209164013091650128170D
:10158000390784F51092670110926601809120025C
:1015900090912102909365018093640197FF20C090
:1015A0005C98809164019091650191958195910974
:1015B00090936501809364019F918F913F912F914A
:1015C0000F900FBE0F901F9018955E98CBCF813073
:1015D000910511F45F9AC6CF029721F65F98C2CFAA
:1015E0005C9AEACF8130910511F45D9AE5CF0297BC
:1015F00019F75D98E1CF0F931F93CF93DF9310926C
:10160000D5021092D40288EE93E0A0E0B0E080937F
:10161000D6029093D702A093D802B093D9022CE0BF
:1016200031E03093D3022093D20225EC30E03093A6
:10163000DF022093DE0224EC30E03093E1022093BD
:10164000E00220EC30E03093E3022093E20221EC50
:1016500030E03093E5022093E40222EC30E0309356
:10166000E7022093E60226EC30E03093E902209373
:10167000E8021092EB021092EC021092ED0210922E
:10168000EE02109272031092710380937303909391
:101690007403A0937503B09376032EE131E0309389
:1016A000700320936F03109294031092930380931E
:1016B000950390939603A0939703B093980380E3C8
:1016C00091E090939203809391031092A80310925B
:1016D000A7031092AA031092A9031092AC031092D0
:1016E000AB031092AE031092AD036091AF036E7F17
:1016F0006D7F6093AF036695617081E068278BE032
:101700000E946B0161E08BE00E94990105EF10E0FF
:10171000F80184918093A103C1EED0E0FE01849191
:10172000E82FF0E0EE0FFF1FE453FF4F85919491F7
:101730009093A3038093A20360E089E00E94990143
:101740008091AF0381FD04C061E089E00E946B01DC
:1017500089E080939D03E3EFF0E0E491E0939E0342
:10176000EFEDF0E0E491F0E0EE0FFF1FEE53FF4FDE
:10177000859194919093A00380939F0310927C0392
:101780001092830310928A0310928B0310928C03A1
:1017900010928D0381E080938903809386031092D9
:1017A000870392E09093880380937B038CE090E022
:1017B0009093800380937F030E945C1A909385032B
:1017C000809384030097A1F12CE0FC0111922A95EB
:1017D000E9F784E090E090937E0380937D038BE0B3
:1017E00090E0909382038093810380917C0388230F
:1017F00041F061E08BE00E94990160E08BE00E9483
:101800006B01FE01C491EC2FF0E0EE0FFF1FE453DB
:10181000FF4F8591949190938F0380938E03F801ED
:10182000049100939003DF91CF911F910F91089540
:101830001092800310927F0310927E0310927D031A
:10184000CECFCF93DF93CDB7DEB72A970FB6F894FC
:10185000DEBF0FBECDBF789484B5826084BD84B5F1
:10186000816084BD85B5826085BD85B5816085BD9B
:1018700080916E00816080936E0010928100809153
:1018800081008260809381008091810081608093DB
:101890008100809180008160809380008091B10000
:1018A00084608093B1008091B00081608093B0002B
:1018B00080917A00846080937A0080917A008260BF
:1018C00080937A0080917A00816080937A00809181
:1018D0007A00806880937A001092C100E091E20261
:1018E000F091E30282E08083E091DE02F091DF027A
:1018F0001082E091E002F091E1028FEC808310927F
:10190000EA02E091E602F091E70286E08083E0914E
:10191000E402F091E502808180618083E091E4023D
:10192000F091E502808188608083E091E402F0918B
:10193000E502808180688083E091E402F091E50215
:1019400080818F7D80831092AC031092AB03109244
:10195000AA031092A9031092A8031092A7038DE97D
:1019600091E09093AE038093AD0390919D039631E7
:1019700008F047C02DEB30E03093A8032093A70375
:101980002BE931E03093AA032093A9032CE231E044
:101990003093AC032093AB032091680084E098302F
:1019A00048F031E09E3008F430E081E001C0880F5B
:1019B0003A95EAF7822B809368002DE630E0983064
:1019C00050F02BE630E09E3030F02CE630E09631DF
:1019D00010F030E020E03093A5032093A403292FDA
:1019E00030E0983008F0EBC081E001C0880F9A9594
:1019F000EAF78093A6038091AD039091AE0301971F
:101A0000F1F78091AB039091AC03892B49F1E09100
:101A1000F201F091F30123E0E139F20709F1309787
:101A200039F0A389B4899C918589809589238C9309
:101A30008091AF038E7F8093AF031092F1011092DB
:101A4000F00181E993E09093F3018093F201E0913A
:101A5000A403F091A50380819091A603892B808334
:101A60001092D1021092D002109261021092830261
:101A70000E94D40489ED92E09093F7018093F601DF
:101A80008AED92E09093F5018093F4018CE08093CD
:101A9000B80061E085E00E94990161E087E00E9462
:101AA000990161E084E00E94990161E086E00E9472
:101AB000990161E08DE00E9499010E94DA060E947E
:101AC000CD030E94D5012B013C0164E6C62ED12C2A
:101AD000E12CF12C0E94D50164197509860997093A
:101AE000683E734081059105A8F331E0C31AD1081F
:101AF000E108F10868EE460E63E0561E611C711C99
:101B0000C114D104E104F10429F762E08CE00E94E1
:101B100099018CE090E0909311028093100281E093
:101B2000809314028093150280931F0280E098E056
:101B300090930B0280930A0289EF97E09093090239
:101B400080930802809181039091820397FD08C0E1
:101B500061E00E94990160E0809181030E946B0125
:101B600081E080937C03209183032223D1F1609153
:101B70008403709185037A836983215069F130E091
:101B800050E040E06FEF7FEF80E090E00E94011AAC
:101B9000E981FA8140917F0350918003CF01A981AF
:101BA000BA818A1B9B0B84179507C8F44081429F1A
:101BB000C001439F900D112490833196EBCF9E304E
:101BC00040F42850310981E001C0880F2A95EAF7D6
:101BD00010CF2E503109F7CF30E020E0D9CF10924E
:101BE00083031092B0001092B1008091B100826026
:101BF0008093B10087E28093B3008091B00082604F
:101C00008093B00080917000826080937000B1E09A
:101C1000B093600288E68093820210926102109273
:101C200083028BE690E00E946C0690E080E00E94C8
:101C30006C060E94130521E020936002109261025D
:101C4000109283028BE190E00E946C0690E080E0AD
:101C50000E946C060E94130531E0309360021092DE
:101C60006102109283028CE190E00E946C0688E091
:101C700090E00E946C060E94130561E06093600290
:101C800010926102109283028AE190E00E946C0639
:101C900083E090E00E946C060E94130510925202AD
:101CA00010925102222423945BEC852E59E3952E49
:101CB00080915102909152029A838983C090F801D9
:101CC000D090F901E090FA01F090FB014090FC0106
:101CD0005090FD016090FE017090FF01843F9140A3
:101CE0000CF055C085E590E00E94740620926002D9
:101CF000B8E6B0938202109261021092830283E4EC
:101D000090E00E946C060E94130564E070E088E693
:101D100090E00E9406070E942F01382E0E942F019A
:101D2000A12C8A299329092E000CAA0BBB0B8C0D20
:101D30009D1DAE1DBF1D8093F8019093F901A093E6
:101D4000FA01B093FB010E942F01F82E0E942F018F
:101D500000E0802B9F29092E000CAA0BBB0B840DE1
:101D6000951DA61DB71D8093FC019093FD01A093C6
:101D7000FE01B093FF01C4010197F1F729813A8177
:101D80002F5F3F4F309352022093510291CF44EF87
:101D9000842E99249394A12CB12CC301B201A501E6
:101DA00094010E94011A2093FC013093FD0140939D
:101DB000FE015093FF01C701B601A50194010E94E5
:101DC000011A2093F8013093F9014093FA015093DE
:101DD000FB010E94D5016056704F8F4F9F4F60935B
:101DE0000C0270930D0280930E0290930F0211E08B
:101DF00032E0232E312C80915502909156020196AB
:101E0000883E33E093070CF078C09093560280939D
:101E10005502809155029091560262E370E00E9453
:101E2000ED19892B31F480915402612F681B609366
:101E3000540281E993E00E947604892B31F181E913
:101E400093E00E948C04082F80935302863509F09A
:101E500059C080910001909101010E94EA06109200
:101E60005202109251028091500208138EC080914C
:101E70004F028F5F80934F020093500280914F0278
:101E8000833008F46BC700934E0280915102909109
:101E900052028A3191050CF07BC001969093520258
:101EA0008093510280E480937C0080917A0080646A
:101EB00080937A0080917A0086FDFCCF8091780033
:101EC00090917900843A91400CF06BC010934D02D0
:101ED000F12CE12C80917D0390917E03E816F906A8
:101EE00008F05DC04FEF50E060E070E0C7010E9475
:101EF000AB008FEFE81AF80AEDCF1092560210925D
:101F0000550287CF863729F40E94DA060E94CD0356
:101F1000A6CF81E090E00133B9F0023329F430928A
:101F20000101209200019BCFA3E0B0E00333A9F0B0
:101F300024E030E00433D1F065E070E0053301F1D6
:101F4000063339F486E090E090930101809300011C
:101F500086CF073339F4A7E0B0E0B0930101A09336
:101F600000017DCF083339F428E030E030930101DF
:101F70002093000174CF093309F071CF69E070E05C
:101F800070930101609300016ACF10934F0274CFE8
:101F90001092530210924E0210924F0283CF0E9471
:101FA000FA011093600288E6809382021092610227
:101FB000109283028FE390E00E946C060E9413054A
:101FC00062E070E088E690E00E9406070E942F0120
:101FD000082F0E942F010E831D82AD81BE818A2BA6
:101FE0009B2B845A9F4F8930B0E29B070CF05BC15A
:101FF0009093070280930602809106029091070257
:10200000883F9F4D34F468EF7FED70930702609333
:1020100006026091060270910702072E000C880BE1
:10202000990B0E94151820E030E240E056E40E942F
:102030006B170E944B172BE13FE245E652E40E94EA
:1020400025194B015C018092020290920302A0923A
:102050000402B09205028091300281111EC020E07E
:1020600030E040E05FEBC501B4010E942019181672
:10207000A4F420E030E040E05FE3C501B4010E9439
:10208000661787FF0AC08092490290924A02A09286
:102090004B02B0924C0210933002109360021092E7
:1020A00061021092830283E490E00E946C060E9419
:1020B000130564E070E088E690E00E9406070E9445
:1020C0002F01082F0E942F0108871F82EF80F884BC
:1020D000E82AF92A0E942F01082F0E942F010A875F
:1020E000198669857A85682B792B8091FC019091FE
:1020F000FD01681B790B072E000C880B990B0E94C1
:1021000015182FEF35E042E058E30E942519209181
:10211000490230914A0240914B0250914C020E9478
:10212000DF162B013C018091F8019091F901B70174
:10213000681B790B7093010260930002072E000C5C
:10214000880B990B0E94151820EB3FE041EA54E3FD
:102150000E9425199B01AC01C301B2010E94DE1649
:1021600029EC35EE4FE75FE30E9425196B017C01F6
:1021700027E137EB41ED59E3C501B4010E94251970
:102180009B01AC01C701B6010E94DF1669837A8307
:102190008B839C836093490270934A0280934B0225
:1021A00090934C02C0904102D0904202E0904302D2
:1021B000F09044022091450230914602409147023E
:1021C000509148020E94DE16A70196010E94DE1679
:1021D0002B013C0140923D0250923E0260923F0230
:1021E000709240028090390290903A02A0903B0297
:1021F000B0903C0220E030E040E251E4C501B4017F
:102200000E942019181654F020E030E040E251EC12
:10221000C501B4010E94661787FF14C02FE832EC95
:1022200045E75CE3C501B4010E942519A3019201B1
:102230000E94DF1660933D0270933E0280933F023E
:102240009093400240903D0250903E0260903F02C9
:10225000709040022DEC3CEC4CEC5EE3C301B2010B
:102260000E942519209135023091360240913702A3
:10227000509138020E94DF164B015C0120E030E0F3
:1022800048EC53E40E9420191816A4F480E090E072
:10229000A8ECB3E48093350290933602A093370202
:1022A000B093380219C028E030E23093070220933F
:1022B0000602A2CE20E030E048EC53ECC501B401A8
:1022C0000E94661787FD4BC08092350290923602BD
:1022D000A0923702B092380220E030E040E451E4AE
:1022E000C301B2010E9425192091350230913602B6
:1022F00040913702509138020E94DF164B015C0179
:1023000020913102309132024091330250913402D7
:10231000C301B2010E94DE1620E030E040E251E449
:102320000E9425199B01AC01C501B4010E94DF1672
:102330004B015C0120E030E048EC53E40E9420199E
:10234000181694F480E090E0A8ECB3E4809339028E
:1023500090933A02A0933B02B0933C0217C080E0F6
:1023600090E0A8ECB3EC96CF20E030E048EC53ECE2
:10237000C501B4010E94661787FDD2C08092390260
:1023800090923A02A0923B02B0923C0240923102FB
:10239000509232026092330270923402809039027D
:1023A00090903A02A0903B02B0903C0220E030E0D6
:1023B00040EA50E4C501B4010E94661787FF12C0CD
:1023C00020E030E040EA50ECC501B4010E94201941
:1023D000181644F41092390210923A0210923B02FD
:1023E00010923C0220E030E040EF51E469817A81B4
:1023F0008B819C810E9420191816A4F020E030E007
:1024000040EF51EC69817A818B819C810E94661733
:1024100087FD08C080913002882321F080914D0211
:102420008130D1F41092390210923A0210923B029C
:1024300010923C021092350210923602109237022E
:102440001092380210923002109245021092460209
:1024500010924702109248028090390290903A02FE
:10246000A0903B02B0903C0280922C0290922D02F0
:10247000A0922E02B0922F028092280290922902FE
:10248000A0922A02B0922B0280914E02823509F06E
:1024900051C020E030E040E752E4C501B4010E94A1
:1024A000DF1660932C0270932D0280932E0290937E
:1024B0002F0220E030E040EF52E4C501B4010E9459
:1024C000DE16609328027093290280932A0290936B
:1024D0002B0280915402813041F580E890E0CC24B9
:1024E000CA94D12C0D2C000CEE08FF087601DD24D7
:1024F000CC24092E000CAA0BBB0BBA2FA92F982FA6
:102500008827C82AD92AEA2AFB2AB701A60190E01F
:1025100080E00E94AB00B701A60183E090E054C0C8
:1025200080E090E0A8ECB3EC11CF90E080E0D12CFB
:10253000C12CD8CF8C3409F0BDC120E030E040EF91
:1025400052E4C501B4010E94DE1660932C02709320
:102550002D0280932E0290932F0220E030E040E77E
:1025600052E4C501B4010E94DF1660932802709303
:10257000290280932A0290932B0280915402813089
:1025800009F093C180E890E0CC24CA94D12C0D2CA2
:10259000000CEE08FF087601DD24CC24092E000C87
:1025A000AA0BBB0BBA2FA92F982F8827C82AD92A84
:1025B000EA2AFB2AB701A60181E090E00E94AB0065
:1025C000B701A60182E090E00E94AB000E94FA01F0
:1025D00020E030E0A90160914102709142028091B7
:1025E0004302909144020E94661781113EC020E090
:1025F00030E0A901C501B4010E94661787FF16C02B
:102600002FE632E143E05BE36091450270914602C0
:1026100080914702909148020E94DF166093450224
:1026200070934602809347029093480220E030E086
:10263000A901C501B4010E9420191816B4F42FE6AF
:1026400032E143E05BE36091450270914602809184
:102650004702909148020E94DE16609345027093F3
:1026600046028093470290934802C0902C02D0907B
:102670002D02E0902E02F0902F0220E030E0A90120
:10268000C701B6010E94201918160CF032C220E0D2
:1026900030E040E151E4C701B6010E94DF169B0122
:1026A000AC0160E070E080E89FE30E946B1720E0DF
:1026B00030EE4BEA55E40E9425199B01AC0160E025
:1026C00070E88AEC93E40E94DE1660932C0270930B
:1026D0002D0280932E0290932F02C0902802D0905A
:1026E0002902E0902A02F0902B0220E030E0A901BC
:1026F000C701B6010E94201918160CF020C220E074
:1027000030E040E151E4C701B6010E94DF169B01B1
:10271000AC0160E070E080E89FE30E946B1720E06E
:1027200030EE4BEA55E40E9425199B01AC0160E0B4
:1027300070E88AEC93E40E94DE166093280270939E
:10274000290280932A0290932B02C0902C02D090F1
:102750002D02E0902E02F0902F0220E030E0A9013F
:10276000C701B6010E94201918160CF00EC2A7016D
:10277000960160E070E088EC93E40E94DE160E940F
:10278000DD177093270260932602C0902802D09034
:102790002902E0902A02F0902B0220E030E0A9010B
:1027A000C701B6010E94201918160CF003C2A70138
:1027B000960160E070E088EC93E40E94DE160E94CF
:1027C000DD17709325026093240280912602909178
:1027D00027029093230280932202809124029091F9
:1027E00025029093210280932002209110023091C3
:1027F00011023327F901E255FF4F8491F901E651A7
:10280000FF4F0491F901EA52FF4FF490FF2079F055
:1028100081110E944201EF2DF0E0EE0FFF1FEE53F9
:10282000FF4FA591B491EC910E2321E009F420E033
:10283000209314028091120290911302813091052D
:1028400009F4E5C108F4CBC18230910509F444C212
:10285000039709F47BC20E94D501C0900C02D0906E
:102860000D02E0900E02F0900F026C157D058E05B2
:102870009F0588F3D701C6018056904FAF4FBF4FD9
:1028800080930C0290930D02A0930E02B0930F025E
:1028900080E090E0892B09F4AECA0E9445038823AA
:1028A00009F4A5CA0E940000A2CA90E080E0D12CE1
:1028B000C12C6DCE823409F066C020E030E040E2E9
:1028C00050ECC701B6010E942019181684F42DECB3
:1028D0003CEC4CE45DE3C701B6010E94DE16609358
:1028E000410270934202809343029093440220E09D
:1028F00030E046E153ECC501B4010E9420191816DE
:10290000B4F42AE037ED43EA5BE360914102709151
:10291000420280914302909144020E94DE1660932D
:10292000410270934202809343029093440280914B
:102930005402813019F580E890E04FEF50E06A01D1
:10294000550FEE08FF087601DD24CC24092E000C7B
:10295000AA0BBB0B4427582F692F7A2FC42AD52ADC
:10296000E62AF72AB701A60190E080E00E94AB00BA
:10297000B701A601416081E090E026CE90E080E0C2
:1029800050E040E0DCCF863409F064C020E030E065
:1029900040E250E4C701B6010E94661787FF10C0ED
:1029A0002DEC3CEC4CE45DE3C701B6010E94DF1660
:1029B00060934102709342028093430290934402D9
:1029C00020E030E046E153E4C501B4010E946617FF
:1029D00087FF16C02AE037ED43EA5BE360914102CE
:1029E0007091420280914302909144020E94DF164E
:1029F0006093410270934202809343029093440299
:102A000080915402813009F580E890E04FEF50E06A
:102A10006A01550FEE08FF087601DD24CC24092E4B
:102A2000000CAA0BBB0B4427582F692F7A2FC42AFE
:102A3000D52AE62AF72AB701A60182E090E00E9493
:102A4000AB00B701A601416068CD90E080E050E0A6
:102A500040E0DECF833509F049C020E030E040E0BF
:102A60005FE3C701B6010E94201918161CF52DEC72
:102A70003CEC4CE45DE3C701B6010E94DE166093B6
:102A800041027093420280934302909344028091EA
:102A90005502909156029C0123703327232B09F095
:102AA00097CD97FD039695958795959587950E9467
:102AB00074068ECD20E030E040E05FEBC701B60148
:102AC0000E94661787FF09C02DEC3CEC4CE45DE3E7
:102AD000C701B6010E94DF16D2CF109241021092B8
:102AE00042021092430210924402D1CF811170CD64
:102AF000CECF20E030E0A901C701B6010E946617E1
:102B000087FFEBCD20E030E040E151E4C701B601A2
:102B10000E94DE169B01AC0160E070E080E89FE35C
:102B20000E946B1720E030EE4BEA55E40E94251915
:102B30009B01AC0160E070E88AEC93ECC4CD20E02E
:102B400030E0A901C701B6010E94661787FFFDCDDD
:102B500020E030E040E151E4C701B6010E94DE16FA
:102B60009B01AC0160E070E080E89FE30E946B177E
:102B700020E030EE4BEA55E40E9425199B01AC01A0
:102B800060E070E88AEC93ECD6CD20E030E0A9015B
:102B9000C701B6010E94661787FF07C0A70196010B
:102BA00060E070E088EC93ECE8CD10922702109280
:102BB0002602EBCD20E030E0A901C701B6010E945A
:102BC000661787FF07C0A701960160E070E088ECF8
:102BD00093ECF3CD1092250210922402F6CD211130
:102BE0003ACE80911502813009F035CE0E94CD0297
:102BF00060931B0270931C0280931D0290931E022F
:102C000081E090E0909313028093120224CE0E9400
:102C1000CD02C0901B02D0901C02E0901D02F090EB
:102C20001E026C197D098E099F09643171058105A9
:102C3000910508F410CE80911402811116C0809184
:102C40001502813009F045C00E94CD026093160242
:102C50007093170280931802909319021092150234
:102C60003092130220921202F6CD813091F58091BC
:102C7000150281112EC00E94CD02C0901602D09084
:102C80001702E0901802F0901902DC01CB018C19B8
:102C90009D09AE09BF098093160290931702A09375
:102CA0001802B0931902893E9340A105B10540F482
:102CB00080911F02E0910A02F0910B0290E00995C9
:102CC0008091140280931502109213021092120246
:102CD000C2CD10931502F8CF2130A9F480911502CE
:102CE000811111C061E070E07093130260931202D1
:102CF0000E94CD0260931B0270931C0280931D0200
:102D000090931E02A8CD0E94CD02C0901602D090D2
:102D10001702E0901802F09019026C197D098E09D3
:102D20009F096C3D75408105910508F494CD809113
:102D30001F02E0910802F091090290E0099523E05A
:102D400030E0309313022093120285CD213009F038
:102D500082CD8091150281117ECDC4CF8091510228
:102D6000909152029AC880918403909185030E94A9
:102D7000F81A809181039091820397FD03C060E06F
:102D80000E94990180E391E09093920380939103D4
:102D90008091F2019091F3018159934071F4E09197
:102DA000A403F091A50390818091A60380958923C7
:102DB00080831092F3011092F20108955058BB27BE
:102DC000AA270E94F6160C94E6180E94D81838F02C
:102DD0000E94DF1820F039F49F3F19F426F40C9478
:102DE0009A180EF4E095E7FB0C949418E92F0E94D2
:102DF000F71858F3BA17620773078407950720F08E
:102E000079F4A6F50C9419190EF4E0950B2EBA2F4F
:102E1000A02D0B01B90190010C01CA01A0011124E0
:102E2000FF27591B99F0593F50F4503E68F11A168C
:102E3000F040A22F232F342F4427585FF3CF46951D
:102E400037952795A795F0405395C9F77EF41F163F
:102E5000BA0B620B730B840BBAF09150A1F0FF0F09
:102E6000BB1F661F771F881FC2F70EC0BA0F621FF5
:102E7000731F841F48F4879577956795B795F795E5
:102E80009E3F08F0B0CF9395880F08F09927EE0F7A
:102E90009795879508959F939F77EEE389379E07CF
:102EA00028F4E8E6F0E00E94C4180CC00E94501814
:102EB0009058A2EA2AED3FE049EC5FE30E94F61643
:102EC0000E94E6180F9007FC905808950E94701811
:102ED00008F481E008950E947F170C94E6180E9480
:102EE000DF1858F00E94D81840F029F45F3F29F00D
:102EF0000C94941851110C941A190C949A180E945D
:102F0000F71868F39923B1F3552391F3951B550BEB
:102F1000BB27AA2762177307840738F09F5F5F4FAC
:102F2000220F331F441FAA1FA9F335D00E2E3AF0EB
:102F3000E0E832D091505040E695001CCAF72BD003
:102F4000FE2F29D0660F771F881FBB1F2617370754
:102F50004807AB07B0E809F0BB0B802DBF01FF2786
:102F600093585F4F3AF09E3F510578F00C949418B7
:102F70000C941A195F3FE4F3983ED4F38695779545
:102F80006795B795F7959F5FC9F7880F911D96953F
:102F9000879597F90895E1E0660F771F881FBB1F9B
:102FA000621773078407BA0720F0621B730B840B48
:102FB000BA0BEE1F88F7E09508950E94E417689415
:102FC000B1110C941A1908950E94FF1888F09F57A8
:102FD00098F0B92F9927B751B0F0E1F0660F771F3D
:102FE000881F991F1AF0BA95C9F714C0B13091F033
:102FF0000E941919B1E008950C941919672F782FC0
:103000008827B85F39F0B93FCCF3869577956795F7
:10301000B395D9F73EF490958095709561957F4F63
:103020008F4F9F4F0895E89409C097FB3EF4909509
:103030008095709561957F4F8F4F9F4F9923A9F091
:10304000F92F96E9BB279395F69587957795679520
:10305000B795F111F8CFFAF4BB0F11F460FF1BC064
:103060006F5F7F4F8F4F9F4F16C0882311F096E9F7
:1030700011C0772321F09EE8872F762F05C06623A5
:1030800071F096E8862F70E060E02AF09A95660F5E
:10309000771F881FDAF7880F9695879597F9089517
:1030A000DF93CF931F930F938B01EC01ECE7F0E0DC
:1030B0000E949D180E94E6189801AE018B01EC0158
:1030C00060E070E080E89FE30E94DE160E9498199D
:1030D0009801AE010F911F91CF91DF910C94381997
:1030E000990F0008550FAA0BE0E8FEEF1616170619
:1030F000E807F907C0F012161306E407F50798F081
:10310000621B730B840B950B39F40A2661F0232B99
:10311000242B252B21F408950A2609F4A140A69515
:103120008FEF811D811D089597F99F6780E870E0FA
:1031300060E008959FEF80EC0895DF93CF931F9395
:103140000F93FF92EF92DF927B018C01689406C08F
:10315000DA2EEF010E943819FE01E894A59125911D
:10316000359145915591A6F3EF010E94F616FE01A7
:103170009701A801DA9469F7DF90EF90FF900F9123
:103180001F91CF91DF9108959F938F937F936F93BA
:10319000FF93EF939B01AC010E942519EF91FF91E2
:1031A0000E949D182F913F914F915F910C9425198A
:1031B00000240A9416161706180609060895002416
:1031C0000A9412161306140605060895092E039490
:1031D000000C11F4882352F0BB0F40F4BF2B11F404
:1031E00060FF04C06F5F7F4F8F4F9F4F089557FD63
:1031F0009058440F551F59F05F3F71F04795880F65
:1032000097FB991F61F09F3F79F0879508951216FB
:1032100013061406551FF2CF4695F1DF08C01616A7
:1032200017061806991FF1CF869571056105089458
:103230000895E894BB2766277727CB0197F908956F
:103240000E94701808F48FEF08950E9438190C94AA
:10325000E6180E94D81838F00E94DF1820F0952355
:1032600011F00C9494180C949A1811240C941A19B7
:103270000E94F71870F3959FC1F3950F50E0551F0A
:10328000629FF001729FBB27F00DB11D639FAA27BB
:10329000F00DB11DAA1F649F6627B00DA11D661F0A
:1032A000829F2227B00DA11D621F739FB00DA11D2B
:1032B000621F839FA00D611D221F749F3327A00DE5
:1032C000611D231F849F600D211D822F762F6A2F81
:1032D00011249F5750409AF0F1F088234AF0EE0FE6
:1032E000FF1FBB1F661F771F881F91505040A9F713
:1032F0009E3F510580F00C9494180C941A195F3F6E
:10330000E4F3983ED4F3869577956795B795F7954E
:10331000E7959F5FC1F7FE2B880F911D96958795C6
:1033200097F9089519F416F40C949A180C94D81976
:103330000E94FF18B8F39923C9F3B6F39F57550BB2
:1033400087FF0E94E6190024A0E640EA9001805819
:103350005695979528F4805C660F771F881F20F09C
:1033600026173707480730F4621B730B840B20299C
:1033700031294A2BA69517940794202531254A27F1
:1033800058F7660F771F881F20F026173707480762
:1033900030F4620B730B840B200D311D411DA09581
:1033A00081F7B901842F9158880F969587950895D4
:1033B0009F3F31F0915020F4879577956795B795A9
:1033C000880F911D9695879597F9089591505040D3
:1033D000660F771F881FD2F7089597FB072E16F404
:1033E000009407D077FD09D00E94201A07FC05D071
:1033F0003EF4909581959F4F0895709561957F4F0C
:103400000895052E97FB1EF400940E94181A57FD8C
:1034100007D00E94341A07FC03D04EF40C94181AFB
:1034200050954095309521953F4F4F4F5F4F0895F0
:1034300090958095709561957F4F8F4F9F4F089520
:10344000AA1BBB1B51E107C0AA1FBB1FA617B707CA
:1034500010F0A61BB70B881F991F5A95A9F78095E6
:103460009095BC01CD010895A1E21A2EAA1BBB1BA9
:10347000FD010DC0AA1FBB1FEE1FFF1FA217B30740
:10348000E407F50720F0A21BB30BE40BF50B661F56
:10349000771F881F991F1A9469F76095709580951A
:1034A00090959B01AC01BD01CF010895EE0FFF1F68
:1034B0000590F491E02D09940F931F93CF93DF9320
:1034C0008230910510F482E090E0E091B203F09137
:1034D000B30330E020E0B0E0A0E0309799F421158C
:1034E000310509F44AC0281B390B24303105D8F5C1
:1034F0008A819B816115710589F1FB019383828328
:10350000FE0111C040815181028113814817590782
:10351000E0F04817590799F4109761F012960C9350
:10352000129713961C933296CF01DF91CF911F9182
:103530000F9108950093B2031093B303F4CF2115B4
:10354000310551F04217530738F0A901DB019A0108
:10355000BD01DF01F801C1CFEF01F9CF9093B303B3
:103560008093B203CDCFFE01E20FF31F81939193BD
:103570002250310939832883D7CF2091B00330916D
:10358000B103232B41F420910401309105013093C4
:10359000B1032093B0032091020130910301211562
:1035A000310541F42DB73EB7409106015091070116
:1035B000241B350BE091B003F091B103E217F30740
:1035C000A0F42E1B3F0B2817390778F0AC014E5F93
:1035D0005F4F2417350748F04E0F5F1F5093B1031C
:1035E0004093B003819391939FCFF0E0E0E09CCFB4
:1035F000CF93DF930097E9F0FC0132971382128298
:10360000A091B203B091B303ED0130E020E0109738
:10361000A1F420813181820F931F2091B00330915A
:10362000B1032817390709F061C0F093B103E093A3
:10363000B003DF91CF910895EA01CE17DF07E8F5D7
:103640004A815B819E0141155105B1F7E901FB8378
:10365000EA8349915991C40FD51FEC17FD0761F416
:10366000808191810296840F951FE9019983888357
:10367000828193819B838A83F0E0E0E012968D91B2
:103680009C9113970097B9F52D913C911197CD011D
:103690000296820F931F2091B0033091B103281737
:1036A000390739F6309751F51092B3031092B203EF
:1036B000B093B103A093B003BCCFD383C283408146
:1036C0005181840F951FC817D90761F44E5F5F4F72
:1036D00088819981480F591F518340838A819B813A
:1036E000938382832115310509F0B0CFF093B303A2
:1036F000E093B2039ECFFD01DC01C0CF13821282A2
:10370000D7CF10E0C0E8D0E004C0FE010E94561AF6
:0C3710002196C138D107C9F7F894FFCF0B
:10371C0001000000B4038000000000007B03DB020A
:10372C000803E103390317032B03000000003D06D7
:10373C0010067106190409061C01FA0500000000A8
:10374C001A04DB027106190476048C0401040D0AB8
:10375C00006274534554207072657373206C6F6EE5
:10376C0067006274534554207072657373207368DC
:04377C006F727400F4
:00000001FF
