:100000000C944B000C9468000C9468000C946800ED
:100010000C9468000C9468000C9468000C94970A87
:100020000C9468000C9468000C9468000C946800B0
:100030000C9468000C9468000C94640A0C9468009A
:100040000C9468000C9468000C9468000C94680090
:100050000C9468000C9468000C9468000C94680080
:100060000C9468000C946800084AD73B3BCE016EA4
:1000700084BCBFFDC12F3D6C74319ABD56833DDAFF
:100080003D00C77F11BED9E4BB4C3E916BAAAABE0E
:10009000000000803F0011241FBECFEFD8E0DEBF7C
:1000A000CDBF11E0A0E0B1E0E2EFFBE102C00590BE
:1000B0000D92A230B107D9F721E0A2E0B1E001C072
:1000C0001D92AB36B207E1F70E94CF0A0C94F70DF0
:1000D0000C9400008F929F92AF92BF92CF92DF92CA
:1000E000EF92FF920F931F93CF93DF93EC0119824E
:1000F00018821EA61FA618AA19AA1BAA1AAA1CAA09
:100100001DAA0FE612E123E83BE348E451EE6AE75B
:100110007FE302960E949C0186E48F9383EC8F9389
:1001200080E58F931F92812C80E4982E8CE9A82E75
:1001300084E4B82EC12CD12C90ECE92E90E4F92E59
:1001400000E010E020E231E440E050E064E373E4DA
:10015000CE0142960E9422090F900F900F900F90AF
:10016000DF91CF911F910F91FF90EF90DF90CF9093
:10017000BF90AF909F908F900895FC0113AA12AA90
:1001800014AA42960C94400AFC0171836083623089
:10019000710529F0645071096230710510F40C94F6
:1001A000BD0008958F929F92AF92BF92CF92DF923F
:1001B000EF92FF920F931F93CF93DF93EC014A01CD
:1001C0005B01C901B8019058A50194010E94940BEC
:1001D000F7FAF094F7F8F09421EE3EE245E652E4A7
:1001E0000E94860D2BE237E846E35FE30E94150B81
:1001F000AB01BC0197018601CE0102960E94B201BB
:100200004B015C018EA69FA6A8AAB9AA88819981F4
:100210008230910531F0039749F1CE010E94BD0073
:1002200016C0C501B4019F7720E030E040E050E403
:100230000E94F30B87FF09C083E090E099838883D5
:10024000CE010E94BD0081E08CAB1BAA1AAA8AA92C
:100250009BA9DF91CF911F910F91FF90EF90DF90BD
:10026000CF90BF90AF909F908F90089520E030E0A6
:1002700044E352E4C501B4019F770E94790D18163A
:100280003CF484E090E09983888381E08DABC5CF16
:100290008FE6C82E82E1D82E83E8E82E8BE3F82E75
:1002A0009501840140E050E0BA01CE0142960E94DF
:1002B0005E094B015C017C016B01E894F7F820E0DA
:1002C00030E040E251E4C701B6010E94F30B10E0B8
:1002D00000E087FD2EC0A701960160E070E583E491
:1002E00097E40E94F80B20E030E040E85FE30E94D2
:1002F000140B20E030E040E05FE30E94150B0E9409
:100300006A0C613D87E0780714F060ED77E08B01BF
:100310001616170614F001E010E020E030E0A90105
:10032000C501B4010E94F30B18161CF41195019538
:1003300011091BAB0AAB8BCF0F931F93FC011082EB
:1003400011821282138214821582168217824087CC
:1003500051876287738704871587268737871F91A0
:100360000F9108954F925F926F927F928F929F921A
:10037000AF92BF92CF92DF92EF92FF920F931F93B3
:10038000CF93DF93EC014A015B01C901B8016C8393
:100390007D838E839F83C884D984EA84FB842C85E3
:1003A0003D854E855F850E94860D288139814A8171
:1003B0005B810E94150BA70196010E94860D2B01FF
:1003C0003C01A701960160E070E080E89FE30E9495
:1003D000140BA50194010E94860D9B01AC01C30181
:1003E000B2010E94150B688379838A839B83DF9116
:1003F000CF911F910F91FF90EF90DF90CF90BF9022
:10040000AF909F908F907F906F905F904F900895E6
:10041000CF93DF93EC012A9A0E94BD0A6C0F7D1FD7
:10042000811D911D6093070170930801809309015C
:1004300090930A01DF91CF91089581E080930601A6
:1004400085E090E090933C0180933B010C94820501
:100450008091060108958F929F92AF92BF92CF92A2
:10046000DF92EF92FF920F931F93229A2A9824987B
:100470002C9A0FE612E123E83BE348E451EE6AE7E9
:100480007FE38BE291E00E949C0186E48F9383ECF2
:100490008F9380E58F931F92812C80E4982E8CE9B6
:1004A000A82E84E4B82EC12CD12C90ECE92E90E437
:1004B000F92E00E010E020E231E440E050E064E397
:1004C00073E48FE091E00E94220910923C011092A7
:1004D0003B0110920601109202011092030110924A
:1004E0000401109205010F900F900F900F901F9133
:1004F0000F91FF90EF90DF90CF90BF90AF909F90C3
:100500008F900C94EB0680913B0190913C010895F3
:10051000CF92DF92EF92FF921F93CF93DF931F92C0
:10052000CDB7DEB70E94BD0A6B017C018091060148
:10053000882309F488C0C701B60128EE33E040E003
:1005400050E00E94F20A6035710560F09B01205A6C
:1005500031092035310530F0605471406035710546
:1005600008F06FC02A9A83B111E0982F907184FF30
:1005700010E0809100018823F1F191113CC080913D
:100580000B0190910C01A0910D01B0910E01A701FA
:100590009601281B390B4A0B5B0BDA01C901893C18
:1005A0009105A105B10538F180913B0190913C0185
:1005B000C0920B01D0920C01E0920D01F0920E015D
:1005C00020910601211117C09C01225031092230CF
:1005D000310508F055C085E090E090933C01809390
:1005E0003B010E9482058FE091E00E94400A84E670
:1005F00090E00E9408021093000180913B019091CD
:100600003C01009709F04FC082E390E00E9408028D
:1006100081E090E090933C0180933B010E94EB06C7
:10062000C0920201D0920301E0920401F092050110
:100630000F90DF91CF911F91FF90EF90DF90CF90BF
:1006400008952A9890CF8091070190910801A09178
:100650000901B0910A010097A105B10509F483CF02
:10066000C816D906EA06FB0608F47DCF2A98109230
:100670000701109208011092090110920A0173CF2C
:100680000497029708F0B7CF82E090E090933C0186
:1006900080933B010E9482058FE091E00E94400A16
:1006A00082E390E0A6CF019719F680910201909124
:1006B0000301A0910401B0910501A7019601281B37
:1006C000390B4A0B5B0BDA01C9010397A105B10590
:1006D00008F4AECFC0920201D0920301E09204016F
:1006E000F09205011982CE0101960E94080781113E
:1006F00003C00E941D029CCF8981882309F498CFF2
:1007000085E090E090933C0180933B010E9482053C
:100710008FE091E00E94400A88EC90E00E9408027D
:1007200087CF8F929F92AF92BF92CF92DF92EF923C
:10073000FF920F931F93CF93DF93CDB7DEB76897E8
:100740000FB6F894DEBF0FBECDBFCE0101960E945A
:100750006F08882309F44CC029813A814B815C8160
:1007600069857A858B859C8590580E94940B898831
:100770009A88AB88BC88B7FAB094B7F8B09421EEE9
:100780003EE245E652E40E94860D2BE237E846E35E
:100790005FE30E94150BAB01BC01950184018BE264
:1007A00091E00E94B2014B015C0180913B0190916C
:1007B0003C018230910529F0039769F10E9482057E
:1007C00017C0C501B4019F7720E030E040E050E45D
:1007D0000E94F30B87FF0CC083E090E090933C01F4
:1007E00080933B018FE091E00E94400A0E949805AF
:1007F00068960FB6F894DEBF0FBECDBFDF91CF91E4
:100800001F910F91FF90EF90DF90CF90BF90AF902E
:100810009F908F90089520E030E044E352E4C501BA
:10082000B4019F770E94790D18168CF484E090E053
:1008300090933C0180933B010E9482058FE091E000
:100840000E94400A8CE291E00E940802D1CF8FE61C
:10085000C82E82E1D82E83E8E82E8BE3F82E95018E
:10086000840140E050E0BA018FE091E00E945E090F
:1008700090580E946A0CCB010E946505B9CF88EEA2
:1008800093E02091BC0027FF02C081E0089501970A
:10089000C1F780E008951092B9008CE08093B80011
:1008A00084E08093BC000895CF93C82F84EA80939E
:1008B000BC000E943F04882341F0C093BB0084E841
:1008C0008093BC00CF910C943F0480E0CF910895B9
:1008D00084E98093BC0088EE93E02091BC0024FF63
:1008E00002C00197D1F708958093BB0084E88093FC
:1008F000BC000C943F04CF93DF93EC0184EC809315
:10090000BC000E943F04882319F09091BB0098839B
:10091000DF91CF910895CF93DF93EC0184E880932A
:10092000BC000E943F04882319F09091BB0098837B
:10093000DF91CF910895CF93DF93D62FC42F880FE7
:100940000E945404811107C00E946804C0E08C2FEB
:10095000DF91CF9108958D2F0E9474048823A1F315
:100960008C2F0E947404C82F882371F30E9468049E
:10097000EECFAF92BF92CF92DF92FF920F931F9371
:10098000CF93DF93C82FD62F6A01022F880F0E94C2
:10099000540481110EC00E946804F12C8F2DDF9148
:1009A000CF911F910F91FF90DF90CF90BF90AF90AC
:1009B00008958D2F0E947404882369F38C2F880F6B
:1009C00081600E945404F82E882329F310E0D0E0BF
:1009D000C0E0580181E0A81AB108C017D10719F486
:1009E0000E946804DBCFC6018C0F9D1FAC16BD06AC
:1009F00031F40E948B04882371F22196EECF0E947D
:100A00007B04F9CF8F929F92AF92BF92CF92DF92E9
:100A1000EF92FF92CF93DF936B017C014B015C015E
:100A2000E894B7F820E030E040E251E4C501B401B9
:100A30000E94F30BD0E0C0E087FD2EC0A501940119
:100A400060E070E583E497E40E94F80B20E030E07A
:100A500040E85FE30E94140B20E030E040E05FE3F9
:100A60000E94150B0E946A0C613D87E0780714F024
:100A700060ED77E0EB011C161D0614F0C1E0D0E03C
:100A800020E030E0A901C701B6010E94790D87FF7F
:100A900003C0D195C195D109CE01DF91CF91FF90CF
:100AA000EF90DF90CF90BF90AF909F908F90089580
:100AB0009C019FB7F89430934901209348017093AB
:100AC0004701609346019FBF08950F931F93CF93F3
:100AD000DF93EC01072E000C880B990B0E94A20CEF
:100AE0000E9402058C01BE01DD0F880B990B0E944C
:100AF000A20C0E940205B801DF91CF911F910F91C6
:100B00000C9458058FB7F89410924A01109249013D
:100B10001092480110924701109246018FBF5F98D2
:100B20005D980895579A569A559A549A0C9482054E
:100B30008FB7F89491E090934A018FBF08958BB1DD
:100B4000909101019130E9F48F75806490913D019D
:100B5000911119C08F7E90914A01911116C0109287
:100B600045011092440110924301109242011092EB
:100B700041011092400110923F0110923E018BB949
:100B800008958F71E3CF8061E6CF209148013091C5
:100B90004901232BA1F410924501109244011092B7
:100BA0004101109240012091460130914701232BD1
:100BB00009F056C01092430110924201DCCF2091FF
:100BC000400130914101232BE1F420914801309103
:100BD000490137FF03C03195219531093093410117
:100BE00020934001209148013091490191E0121673
:100BF00013060CF090E090930101109245011092C1
:100C0000440120914401309145012F5F3F4F3093C3
:100C10004501209344014091400150914101421708
:100C2000530708F680681092450110924401209104
:100C300048013091490137FF03C0319521953109B1
:100C400030934101209340012091480130914901A6
:100C500091E0121613060CF090E090930101A3CFDF
:100C600020913E0130913F01232BE1F42091460178
:100C70003091470137FF03C03195219531093093F9
:100C80003F0120933E01209146013091470191E0C0
:100C9000121613060CF490E090933D01109243015C
:100CA0001092420120914201309143012F5F3F4F4A
:100CB000309343012093420140913E0150913F0106
:100CC0004217530708F05BCF8062109243011092E5
:100CD0004201209146013091470137FF03C0319511
:100CE0002195310930933F0120933E012091460127
:100CF0003091470191E0121613060CF490E09093A6
:100D00003D013DCF40E06BE688E60E949B048823CE
:100D100099F043E06AE188E60E949B04882361F031
:100D200040E06BE188E60E949B04882329F048E0BC
:100D30006CE188E60C949B0480E008950F931F9368
:100D4000CF93DF93CDB7DEB72E970FB6F894DEBF03
:100D50000FBECDBF8C012EE0AE014F5F5F4F6BE346
:100D600088E60E94B904882359F129813A81322703
:100D700023273227F801318320832B813C813227BE
:100D800023273227338322832D813E813227232755
:100D900032273583248329853A8532272327322732
:100DA000378326832B853C853227232732273187BB
:100DB00020872D853E8532272327322733872287B8
:100DC0002E960FB6F894DEBF0FBECDBFDF91CF9148
:100DD0001F910F9108951092550110925601109293
:100DE0005701109258011092510110925201109225
:100DF00053011092540110924D0110924E01109225
:100E00004F011092500110924C0110924B01089525
:100E10007F928F929F92AF92BF92CF92DF92EF928A
:100E2000FF920F931F93CF93DF93CDB7DEB72C972D
:100E30000FB6F894DEBF0FBECDBF0097B1F4712C92
:100E4000872D2C960FB6F894DEBF0FBECDBFDF9175
:100E5000CF911F910F91FF90EF90DF90CF90BF90B7
:100E6000AF909F908F907F9008958C01FC0110822D
:100E7000CE0101960E949E06782E882301F36F8191
:100E80007885072E000C880B990BC0905501D090E7
:100E90005601E0905701F09058016C0D7D1D8E1D9C
:100EA0009F1D609355017093560180935701909355
:100EB000580189849A84092C000CAA08BB08C090A8
:100EC0005101D0905201E0905301F09054018C0CEC
:100ED0009D1CAE1CBF1C8092510190925201A092A9
:100EE0005301B0925401CB84DC840D2C000CEE082D
:100EF000FF0820914D0130914E0140914F015091DA
:100F00005001C20ED31EE41EF51EC0924D01D092B8
:100F10004E01E0924F01F092500120914B0130912F
:100F20004C012F5F3F4F30934C0120934B01243FE6
:100F3000314008F485CF0E94A20C20E03CED4FE741
:100F400057E40E94F80B60936101709362018093F3
:100F5000630190936401C501B4010E94A20C20E0DA
:100F60003CED4FE757E40E94F80B60935D017093EE
:100F70005E0180935F0190936001C701B6010E94FA
:100F8000A20C20E03CED4FE757E40E94F80B609381
:100F9000590170935A0180935B0190935C0181E049
:100FA000F80180834DCF3F924F925F926F927F9274
:100FB0008F929F92AF92BF92CF92DF92EF92FF9269
:100FC0000F931F93CF93DF93CDB7DEB72C970FB658
:100FD000F894DEBF0FBECDBF04EF11E0C12CD12CC1
:100FE0007601812C912C5401412C512C3201CE01DF
:100FF00001960E949E06382E882309F457C08F81DF
:101000009885092E000CAA0BBB0B480E591E6A1EB0
:101010007B1E89859A85092E000CAA0BBB0B880EB6
:10102000991EAA1EBB1E8B859C85092E000CAA0B3F
:10103000BB0BC80ED91EEA1EFB1E01501109B9F6E2
:10104000C301B2010E94A20C20E03CED4FE757E43F
:101050000E94F80B609361017093620180936301B9
:1010600090936401C501B4010E94A20C20E03CED04
:101070004FE757E40E94F80B60935D0170935E01A7
:1010800080935F0190936001C701B6010E94A20C9A
:1010900020E03CED4FE757E40E94F80B60935901C4
:1010A00070935A0180935B0190935C01832D2C9681
:1010B0000FB6F894DEBF0FBECDBFDF91CF911F9169
:1010C0000F91FF90EF90DF90CF90BF90AF909F90E7
:1010D0008F907F906F905F904F903F900895FF9218
:1010E0000F931F93CF93DF93CDB7DEB72C970FB637
:1010F000F894DEBF0FBECDBF8C01CE0101960E94D9
:101100009E06F82E882309F490C069817A81072E03
:10111000000C880B990B0E94A20C20E030E040E00C
:1011200059E30E94860DF801608371838283938363
:101130006B817C81072E000C880B990B0E94A20CFE
:1011400020E030E040E059E30E94860DF80164831E
:101150007583868397836D817E81072E000C880BB3
:10116000990B0E94A20C20E030E040E059E30E947D
:10117000860DF80160877187828793876F817885F4
:10118000072E000C880B990B0E94A20C20E030E087
:1011900043E053E40E94F80B209161013091620119
:1011A00040916301509164010E94140BF80164871F
:1011B00075878687978769857A85072E000C880B47
:1011C000990B0E94A20C20E030E043E053E40E941F
:1011D000F80B20915D0130915E0140915F015091CB
:1011E00060010E94140BF801608B718B828B938BD2
:1011F0006B857C85072E000C880B990B0E94A20C36
:1012000020E030E043E053E40E94F80B20915901C4
:1012100030915A0140915B0150915C010E94140B86
:10122000F801648B758B868B978B8F2D2C960FB660
:10123000F894DEBF0FBECDBFDF91CF911F910F910C
:10124000FF9008958F929F92AF92BF92CF92DF92BC
:10125000EF92FF920F931F93CF93DF93CDB7DEB73B
:10126000FC01408351836283738304831583268347
:101270003783C086D186E286F38614861586168665
:101280001786108A118A128A138A848A958AA68AF6
:10129000B78A8F859889A989BA89808F918FA28F03
:1012A000B38FDF91CF911F910F91FF90EF90DF905F
:1012B000CF90BF90AF909F908F9008954F925F9284
:1012C0006F927F928F929F92AF92BF92CF92DF9256
:1012D000EF92FF920F931F93CF93DF9300D000D034
:1012E00000D0CDB7DEB79E838D83CB01BA01A901B3
:1012F00098010E94140B4B015C0120E030E0A90131
:10130000C701B6010E94790D18160CF03FC0ED819F
:10131000FE812089318942895389C501B4010E9427
:10132000140BA70196010E94F80B69837A838B83C3
:101330009C83ED81FE81808A918AA28AB38AA7016B
:101340009601C501B4010E94860DED81FE812485C0
:101350003585468557850E94150B2B013C01ED8193
:10136000FE814486558666867786C488D588E68859
:10137000F788A70196010E94790D181664F4ED8193
:10138000FE81C486D586E686F78611C019821A8248
:101390001B821C82CECFF7FAF094F7F8F094A701E5
:1013A0009601C301B2010E94F30B87FDE8CFED81E6
:1013B000FE812485358546855785648175818681C2
:1013C00097810E94860D6B017C01ED81FE81208159
:1013D000318142815381C501B4010E94860D9B0178
:1013E000AC01C701B6010E94150B6B017C01ED81B8
:1013F000FE81208531854285538569817A818B8183
:101400009C810E94860D9B01AC01C701B6010E9420
:10141000150B4B015C01ED81FE81C08CD18CE28CFF
:10142000F38C9B01AC01C701B6010E94F30B87FD51
:101430000EC0F7FAF094F7F8F0949401A501C701F3
:10144000B6010E94790D181614F064017501C701E8
:10145000B60126960FB6F894DEBF0FBECDBFDF9162
:10146000CF911F910F91FF90EF90DF90CF90BF90A1
:10147000AF909F908F907F906F905F904F90089566
:10148000FC011486158616861786108A118A128A20
:10149000138A089582E084BD93E095BD99EF97BDCE
:1014A000EEE6F0E09081926090838093B0008093AC
:1014B000B10087E28093B300E0E7F0E080818260D2
:1014C0008083259A2D9808951F920F920FB60F9240
:1014D00011248F939F93AF93BF9380916701909155
:1014E0006801A0916901B0916A010196A11DB11D29
:1014F0008093670190936801A0936901B0936A019A
:10150000809165018F5F80936501809165018430D2
:1015100028F01092650181E080936601BF91AF9140
:101520009F918F910F900FBE0F901F9018951F9253
:101530000F920FB60F9211242F933F934F935F9307
:101540006F937F938F939F93AF93BF93EF93FF938B
:101550002D9A0E949F052D98FF91EF91BF91AF9119
:101560009F918F917F916F915F914F913F912F91BB
:101570000F900FBE0F901F9018952FB7F8946091A1
:101580006701709168018091690190916A012FBF94
:10159000089580916601811110926601089514BE2C
:1015A0000FB6F894A89580916000886180936000E0
:1015B000109260000FBE0E9492050E942B020E94B2
:1015C0004A0A78940E944B040E948206811102C04C
:1015D0000E941D020E94C90A81110E9491030E946B
:1015E0008802F8CFA1E21A2EAA1BBB1BFD010DC079
:1015F000AA1FBB1FEE1FFF1FA217B307E407F507C3
:1016000020F0A21BB30BE40BF50B661F771F881F9E
:10161000991F1A9469F760957095809590959B0134
:10162000AC01BD01CF0108955058BB27AA270E94E5
:101630002C0B0C943F0D0E94310D38F00E94380D98
:1016400020F039F49F3F19F426F40C94070D0EF4A2
:10165000E095E7FB0C94010DE92F0E94500D58F323
:10166000BA17620773078407950720F079F4A6F587
:101670000C94720D0EF4E0950B2EBA2FA02D0B01D9
:10168000B90190010C01CA01A0011124FF27591BC7
:1016900099F0593F50F4503E68F11A16F040A22FCD
:1016A000232F342F4427585FF3CF4695379527953E
:1016B000A795F0405395C9F77EF41F16BA0B620B3D
:1016C000730B840BBAF09150A1F0FF0FBB1F661F84
:1016D000771F881FC2F70EC0BA0F621F731F841FC7
:1016E00048F4879577956795B795F7959E3F08F0ED
:1016F000B0CF9395880F08F09927EE0F97958795AF
:1017000008950E94310D60F080E891E009F49EEFA9
:101710000E94380D28F040E851E071F45EEF0CC0F3
:101720000C94070D0C94720DE92FE0780E94500D77
:1017300040F3092E052AB1F3261737074807590742
:1017400038F00E2E07F8E02569F0E025E0640AC0C5
:10175000EF6307F8009407FADB01B9019D01DC0192
:10176000CA01AD01EF930E940F0C0E943F0D0E9431
:10177000C40B5F91552339F02BED3FE049E450FD58
:1017800049EC0C94150B0895DF93DD27B92FBF7733
:1017900040E85FE31616170648075B0718F4D92FD1
:1017A0000E947E0D9F938F937F936F930E94F30D02
:1017B000E8E6F0E00E940A0D0E943F0D2F913F9154
:1017C0004F915F910E94990DDD2351F09058A2EA4C
:1017D0002AED3FE049EC5FE3D0785D270E942C0BB7
:1017E000DF910C943F0D0E94DD0C08F481E0089518
:1017F0000E940C0C0C943F0D0E94380D58F00E9472
:10180000310D40F029F45F3F29F00C94010D511186
:101810000C94730D0C94070D0E94500D68F39923DE
:10182000B1F3552391F3951B550BBB27AA276217DC
:101830007307840738F09F5F5F4F220F331F441FE9
:10184000AA1FA9F335D00E2E3AF0E0E832D091501D
:101850005040E695001CCAF72BD0FE2F29D0660F0A
:10186000771F881FBB1F261737074807AB07B0E84D
:1018700009F0BB0B802DBF01FF2793585F4F3AF053
:101880009E3F510578F00C94010D0C94730D5F3F51
:10189000E4F3983ED4F3869577956795B795F795D9
:1018A0009F5FC9F7880F911D9695879597F90895C1
:1018B000E1E0660F771F881FBB1F6217730784075D
:1018C000BA0720F0621B730B840BBA0BEE1F88F76C
:1018D000E09508950E94710C6894B1110C94730DF9
:1018E00008950E94580D88F09F5798F0B92F9927B6
:1018F000B751B0F0E1F0660F771F881F991F1AF0FB
:10190000BA95C9F714C0B13091F00E94720DB1E0E0
:1019100008950C94720D672F782F8827B85F39F0DF
:10192000B93FCCF3869577956795B395D9F73EF493
:1019300090958095709561957F4F8F4F9F4F08953B
:10194000E89409C097FB3EF4909580957095619559
:101950007F4F8F4F9F4F9923A9F0F92F96E9BB270F
:101960009395F695879577956795B795F111F8CF8B
:10197000FAF4BB0F11F460FF1BC06F5F7F4F8F4FF6
:101980009F4F16C0882311F096E911C0772321F0EC
:101990009EE8872F762F05C0662371F096E8862F84
:1019A00070E060E02AF09A95660F771F881FDAF7DB
:1019B000880F9695879597F90895990F0008550F08
:1019C000AA0BE0E8FEEF16161706E807F907C0F0C5
:1019D00012161306E407F50798F0621B730B840BCD
:1019E000950B39F40A2661F0232B242B252B21F4A7
:1019F00008950A2609F4A140A6958FEF811D811D47
:101A0000089597F99F6780E870E060E008959FEF80
:101A100080EC0895DF93CF931F930F93FF92EF9283
:101A2000DF927B018C01689406C0DA2EEF010E94E0
:101A3000990DFE01E894A591259135914591559117
:101A4000A6F3EF010E942C0BFE019701A801DA9486
:101A500069F7DF90EF90FF900F911F91CF91DF9189
:101A6000089500240A941616170618060906089504
:101A700000240A9412161306140605060895092E6A
:101A80000394000C11F4882352F0BB0F40F4BF2BD9
:101A900011F460FF04C06F5F7F4F8F4F9F4F089519
:101AA00057FD9058440F551F59F05F3F71F047950F
:101AB000880F97FB991F61F09F3F79F087950895F4
:101AC000121613061406551FF2CF4695F1DF08C013
:101AD000161617061806991FF1CF86957105610530
:101AE00008940895E894BB2766277727CB0197F9D8
:101AF00008950E94DD0C08F48FEF08959B01AC015E
:101B000060E070E080E89FE30C94F80B0E94990D70
:101B10000C943F0D0E94310D38F00E94380D20F0DA
:101B2000952311F00C94010D0C94070D11240C94C5
:101B3000730D0E94500D70F3959FC1F3950F50E007
:101B4000551F629FF001729FBB27F00DB11D639F6F
:101B5000AA27F00DB11DAA1F649F6627B00DA11D15
:101B6000661F829F2227B00DA11D621F739FB00DBB
:101B7000A11D621F839FA00D611D221F749F33272B
:101B8000A00D611D231F849F600D211D822F762FC4
:101B90006A2F11249F5750409AF0F1F088234AF0A1
:101BA000EE0FFF1FBB1F661F771F881F915050400D
:101BB000A9F79E3F510580F00C94010D0C94730D14
:101BC0005F3FE4F3983ED4F3869577956795B79594
:101BD000F795E7959F5FC1F7FE2B880F911D9695AE
:101BE000879597F908959B01AC010C94860DF894A4
:021BF000FFCF25
:021BF2000101EF
:00000001FF
