:100000000C9469000C9486000C9486000C94860075
:100010000C9486000C9486000C9486000C944D1071
:100020000C9486000C9486000C9486000C94860038
:100030000C9486000C9486000C940D100C94860091
:100040000C9486000C9486000C9486000C94A510E9
:100050000C9486000C9486000C9486000C94860008
:100060000C9486000C948600036EDB363D9A9999B9
:10007000993DABAAAA2A3E000000803F084AD73B20
:100080003BCE016E84BCBFFDC12F3D6C74319ABD67
:1000900056833DDA3D00C77F11BED9E4BB4C3E918B
:1000A0006BAAAABE000000803F072C7AA5BA6CC5D7
:1000B00090DA3B9365FC8BBC53F810FD3C56928361
:1000C0004DBD879D3AB63DCBC9BF5BBE73DA0FC944
:1000D0003F0011241FBECFEFD8E0DEBFCDBF13E03D
:1000E000A0E0B1E0E0E0F3E302C005900D92AA3792
:1000F000B107D9F724E0AAE7B3E001C01D92AD38FB
:10010000B207E1F70E9402120C947E190C940000D1
:100110000F931F93FC0111821082128A138A148A92
:10012000158A178A168A108E118E0FE612E123E8BF
:100130003BE349EC55EE6FE77FE302960E944F01E7
:100140001F910F910C94A30DFC01178A168A108E33
:100150000C94C90FFC01718360836230710529F032
:10016000645071096230710528F4178A168A108E5E
:100170000C94C90F08958F929F92AF92BF92CF9225
:10018000DF92EF92FF920F931F93CF93DF93EC01D7
:100190004A015B01C901B801A50194010E94A013A5
:1001A00021EE3EE245E652E40E94C6152BE237E816
:1001B00046E35FE30E940513AB01BC019701860192
:1001C000CE0102960E9465016B017C01CA8ADB8A1E
:1001D000EC8AFD8A888199818230910541F00397EC
:1001E000B1F11F8A1E8A188E0E94C90F21C020E01B
:1001F00030E040E05FEBC701B6010E94B915181668
:10020000ACF420E030E040E05FE3C701B6010E94BB
:10021000FF1387FF0BC083E090E0998388831F8AD8
:100220001E8A188E0E94C90F81E0888F1F8A1E8A3D
:100230008E899F89DF91CF911F910F91FF90EF9051
:10024000DF90CF90BF90AF909F908F90089520E067
:1002500030E040EF51E4C701B6010E94B91518160D
:1002600054F020E030E040EF51ECC701B6010E94AD
:10027000FF1387FF07C084E090E09983888381E0C3
:10028000898FAFCF01E020E030E0A901C701B601BE
:100290000E94E50D0E949A089F8B8E8BC9CF0F9309
:1002A0001F93FC0110821182128213821482158224
:1002B0001682178240875187628773870487158764
:1002C000268737871F910F9108954F925F926F9203
:1002D0007F928F929F92AF92BF92CF92DF92EF92D6
:1002E000FF920F931F93CF93DF93EC014A015B01C1
:1002F000C901B8016C837D838E839F83C884D984B0
:10030000EA84FB842C853D854E855F850E94C61559
:10031000288139814A815B810E940613A7019601D9
:100320000E94C6152B013C01A701960160E070E018
:1003300080E89FE30E940513A50194010E94C61561
:100340009B01AC01C301B2010E940613688379834B
:100350008A839B83DF91CF911F910F91FF90EF9044
:10036000DF90CF90BF90AF909F908F907F906F90D5
:100370005F904F900895FC014083518362837383A3
:100380000895CF93DF93EC012A9A0E9473106C0FAB
:100390007D1F811D911D6093A7037093A803809317
:1003A000A9039093AA03DF91CF91089581E08093F0
:1003B0009603089581E08093A60385E090E09093F2
:1003C000C4038093C3030C9423098091A60308956A
:1003D0000F931F93229A2A9824982C9A0FE612E1E1
:1003E00023E83BE349EC55EE6FE77FE383EB93E0D3
:1003F0000E944F010E94A30D85E090E09093C403FA
:100400008093C3031092A6031092A1031092A2033B
:100410001092A3031092A40310928E0310928F03E4
:10042000109290031092910310929D0310929E03DC
:1004300010929F031092A00310929C0310929703B6
:100440000E94250B84E690E01F910F910C94C1014E
:100450008091C3039091C403089560918E037091BD
:100460008F038091900390919103089580918C0364
:1004700090918D030895CF92DF92EF92FF921F9398
:10048000CF93DF931F92CDB7DEB70E9473106B013D
:100490007C0180917A0390917B03A0917C03B091C1
:1004A0007D03A7019601281B390B4A0B5B0BDA0170
:1004B000C901843F9140A105B10550F1C0927A0372
:1004C000D0927B03E0927C03F0927D0380E48093E2
:1004D0007C0087EC80937A0080917A0086FDFCCFC7
:1004E0008091780090917900843A9140E0F481E025
:1004F00080937E038091C3039091C403039741F4DA
:1005000084E090E09093C4038093C3030E94230986
:100510008091A603882309F4F4C08091A503882361
:1005200029F02A9818C010927E03F2CFC701B601B5
:1005300028EE33E040E050E00E94B01260357105D3
:1005400048F09B01205A3109605471402035310533
:1005500008F022C12A9A93B111E0892F807194FF8B
:1005600010E090910201992309F461C181117AC0D0
:100570008091AB039091AC03A091AD03B091AE0319
:100580000097A105B10569F0A7019601281B390B59
:100590004A0B5B0BDA01C901893C9105A105B10544
:1005A00028F1C092AB03D092AC03E092AD03F0927D
:1005B000AE03C0928803D0928903E0928A03F0923E
:1005C0008B038091C3039091C403909301018093A6
:1005D00000011092800321E020937F033091A60355
:1005E000332309F411C12093A5032A988091800335
:1005F000811138C080917F038823A1F18091880305
:1006000090918903A0918A03B0918B03A701960171
:10061000281B390B4A0B5B0BDA01C901803D97405F
:10062000A105B105F8F080910001909101010597B5
:10063000C9F481E080938003809387031092830341
:100640001092840310928503109286031092820305
:100650001092810388EC90E00E94C10180E691E055
:100660000E94D110109302018091C3039091C403A2
:10067000079719F58091920390919303A0919403A9
:10068000B0919503A7019601281B390B4A0B5B0B10
:10069000DA01C901883B9B40A105B10570F00E94B9
:1006A000230985E090E09093C4038093C3031092E4
:1006B000960388EC90E00E94C1018091C303909161
:1006C000C403009709F024C182E390E00E94C101B5
:1006D00081E090E09093C4038093C3030E94250BB4
:1006E000C092A103D092A203E092A303F092A403CC
:1006F0000F90DF91CF911F91FF90EF90DF90CF90FF
:1007000008958091A7039091A803A091A903B091A7
:10071000AA032091C3033091C4032630310509F0A8
:100720005EC00097A105B10531F0C816D906EA06EA
:10073000FB0608F40FCF1092A7031092A8031092A3
:10074000A9031092AA0360918E0370918F03809188
:100750009003909191039F7720E030E040E050E4D7
:100760000E94FF1387FDDDCE60918E0370918F0391
:10077000809190039091910320E030E040E450E4B8
:100780000E94B91587FD0DC0C701B60128E532E00A
:1007900040E050E00E94B0126035710508F0C1CE13
:1007A000D9CE60918E0370918F03809190039091C8
:1007B000910320E030E040E450EC0E94FF13181653
:1007C0000CF4AFCEC701B60128EC30E040E050E0B9
:1007D0000E94B0126C33710508F0A3CEBBCE009717
:1007E000A105B10509F4B7CEC816D906EA06FB067D
:1007F00008F4B1CE2A981092A7031092A803109281
:10080000A9031092AA03A7CE0297029708F0F2CE8E
:1008100085E090E09093C4038093C3030E94230972
:100820000E94C90F84E690E00E94C101DFCE8823B8
:1008300009F4DCCE80918003811125C080917F0373
:10084000882309F180910001909101018630910582
:10085000F9F487E090E09093C4038093C30388E5A4
:1008600092E00E94C1010E94390964E670E084E6CA
:1008700090E00E94F908C0929203D0929303E09214
:100880009403F092950310927F0310928003EACEB6
:100890008130910559F485E090E09093C4038093F2
:1008A000C30384E690E00E94C101EDCF853091053D
:1008B000E1F481E090E09093C4038093C3030E942D
:1008C000250BC092A103D092A203E092A303F09261
:1008D000A403C0929D03D0929E03E0929F03F092E6
:1008E000A00381E080939C03DCCF049761F685E050
:1008F00090E09093C4038093C3030E9423090E9455
:10090000C90F84E690E00E94C10110929703BBCF0B
:100910008130910509F07EC080919D0390919E03E6
:10092000A0919F03B091A003A7019601281B390B4A
:100930004A0B5B0BDA01C901843F9140A105B10567
:10094000A8F080919C03853088F484E690E00E94B2
:10095000C101C0929D03D0929E03E0929F03F0924A
:10096000A00380919C038F5F80939C038091A103DF
:100970009091A203A091A303B091A403A7019601B3
:10098000281B390B4A0B5B0BDA01C9010397A10540
:10099000B10508F4ADCEC092A103D092A203E092BB
:1009A000A303F092A4031982CE0101960E94420B88
:1009B000811103C00E94DA019BCE8981882309F44A
:1009C00097CE0E9423090E94C90F80919603882325
:1009D00059F086E090E09093C4038093C30388ECC1
:1009E00090E00E94C10184CE82E090E09093C40325
:1009F0008093C30384E690E00E94C101C0929D03EE
:100A0000D0929E03E0929F03F092A00381E0809336
:100A10009C036ECE8230910559F580919D03909193
:100A20009E03A0919F03B091A003A7019601281BEC
:100A3000390B4A0B5B0BDA01C90186399105A10517
:100A4000B10508F455CE80919C03823008F050CE59
:100A500084E690E00E94C101C0929D03D0929E0363
:100A6000E0929F03F092A00380919C038F5FCFCF11
:100A7000049709F03DCE80919703882309F438CE7E
:100A800080919D0390919E03A0919F03B091A0033C
:100A9000B701A601481B590B6A0B7B0B8091980389
:100AA00090919903A0919A03B0919B03481759071D
:100AB0006A077B0708F41CCE82E390E00E94C10124
:100AC000C0929D03D0929E03E0929F03F092A003F8
:100AD00080919C038F5F80939C03833068F484E64D
:100AE00090E0A0E0B0E08093980390939903A093E6
:100AF0009A03B0939B03FCCD88E592E0A0E0B0E0C0
:100B00008093980390939903A0939A03B0939B03C7
:100B100010929C03EDCD2F923F924F925F926F9275
:100B20007F928F929F92AF92BF92CF92DF92EF927D
:100B3000FF920F931F93CF93DF93CDB7DEB7CC55C2
:100B4000D1090FB6F894DEBF0FBECDBFCE018F5ACC
:100B50009F4F0E94D80A882309F4BFC067966EADE4
:100B60007FAD679770938D0360938C0380918703AB
:100B7000882309F449C0072E000C880B990B0091BB
:100B80008303109184032091850330918603600FC5
:100B9000711F821F931F609383037093840380935C
:100BA00085039093860320918103309182032F5F08
:100BB0003F4F3093820320938103243F314020F143
:100BC0001092870324EF31E040E050E00E94D212FF
:100BD0003F932F938AE991E09F938F931F9280E533
:100BE0008F938E010F5F1F4F1F930F930E949916D3
:100BF000C8010E94D11084EF91E00E94C1010FB69C
:100C0000F894DEBF0FBECDBF67966EAD7FAD679720
:100C1000072E000C880B990B645A7F4F8F4F9F4F04
:100C2000683F2FED72072FEF8207920724F468EFD9
:100C30007FED8FEF9FEF693040E2740781059105EA
:100C400024F068E070E280E090E00E94AE1420E0C2
:100C500030E240E056E40E9404140E94721321EE38
:100C60003EE245E652E40E94C6152B013C016B961C
:100C7000EEACFFAC6B970E94990D4C0169960EADDE
:100C80001FAD69970E949E0D1C01C090C303D090B8
:100C9000C403C6018B7F0197D1F54092AF035092F8
:100CA000B0036092B1037092B20340928E035092EF
:100CB0008F03609290037092910383E0C816D10471
:100CC00009F492C097E0C916D10439F022E0C216A7
:100CD000D10409F465C00E942309C45ADF4F0FB63E
:100CE000F894DEBF0FBECDBFDF91CF911F910F9162
:100CF000FF90EF90DF90CF90BF90AF909F908F903C
:100D00007F906F905F904F903F902F900895B70124
:100D100068197909072E000C880B990B0E94AE14F4
:100D20002FEF35E042E058E30E94C6152091AF0353
:100D30003091B0034091B1035091B2030E94061369
:100D40004B015C01B80162197309072E000C880B76
:100D5000990B0E94AE1420EB3FE041EA54E30E945D
:100D6000C6159B01AC01C501B4010E94051329EC15
:100D700035EE4FE75FE30E94C6154B015C0127E1AA
:100D800037EB41ED59E3C301B2010E94C6159B0147
:100D9000AC01C501B4010E9406132B013C017DCFBB
:100DA00080917E03811199CF20E030E040E05FEB3D
:100DB000C301B2010E94B91518160CF08ECF20E0C5
:100DC00030E040E05FE3C301B2010E94FF1387FF00
:100DD00084CF83E090E09093C4038093C3030E9488
:100DE000C90F0E94390979CF80917E03811114C007
:100DF00020E030E040EF51E4C301B2010E94B91598
:100E0000181654F020E030E040EF51ECC301B2017D
:100E10000E94FF1387FF30C084E090E09093C403EA
:100E20008093C3030E94230900E020E030E0A90181
:100E3000C301B2010E94E50D11E0109397030E94D7
:100E4000731060939D0370939E0380939F03909310
:100E5000A00310939C0384E690E0A0E0B0E08093B0
:100E6000980390939903A0939A03B0939B0382E312
:100E700090E00E94C10131CF01E020E030E0A90103
:100E8000C301B2010E94E50D0E949A08BC010E94B4
:100E9000F90823CF88EE93E02091BC0027FF02C021
:100EA00081E008950197C1F780E00895CF93DF9323
:100EB00000D000D0CDB7DEB788B18F7C88B93C9820
:100EC00089E03D9A1C829C819A3000F13D981B82FA
:100ED0009B819A30F8F08150A1F73C9A1A828A815E
:100EE0008A30E0F03C98198289818A30D8F01092DB
:100EF000B9008CE08093B80084E08093BC000F9030
:100F00000F900F900F90DF91CF9108959C819F5F7C
:100F10009C83D9CF9B819F5F9B83DACF8A818F5F30
:100F20008A83DDCF89818F5F8983DECFCF93C82FFE
:100F300084EA8093BC000E944A07882341F0C09352
:100F4000BB0084E88093BC00CF910C944A0780E0FA
:100F5000CF91089584E98093BC0088EE93E02091BE
:100F6000BC0024FF02C00197D1F708958093BB0015
:100F700084E88093BC000C944A07CF93DF93EC0184
:100F800084EC8093BC000E944A07882319F090915A
:100F9000BB009883DF91CF910895CF93DF93EC014D
:100FA00084E88093BC000E944A07882319F090913E
:100FB000BB009883DF91CF910895CF93DF93D62F15
:100FC000C42F880F0E949607811107C00E94AA07AC
:100FD000C0E08C2FDF91CF9108958D2F0E94B6072E
:100FE0008823A1F38C2F0E94B607C82F882371F3A2
:100FF0000E94AA07EECFAF92BF92CF92DF92FF92EC
:101000000F931F93CF93DF93C82FD62F6A01022F20
:10101000880F0E94960781110EC00E94AA07F12C2A
:101020008F2DDF91CF911F910F91FF90DF90CF9087
:10103000BF90AF9008958D2F0E94B607882369F363
:101040008C2F880F81600E949607F82E882329F341
:1010500010E0D0E0C0E0580181E0A81AB108C01744
:10106000D10719F40E94AA07DBCFC6018C0F9D1F80
:10107000AC16BD0631F40E94CD07882371F221968B
:10108000EECF0E94BD07F9CF8F929F92AF92BF9291
:10109000CF92DF92EF92FF92CF93DF936B017C01AF
:1010A0004B015C01E894B7F820E030E040E251E405
:1010B000C501B4010E94FF13D0E0C0E087FD2EC03F
:1010C000A501940160E070E583E497E40E940414B4
:1010D00020E030E040E85FE30E94051320E030E0CC
:1010E00040E05FE30E9406130E947614613D87E0B2
:1010F000780714F060ED77E0EB011C161D0614F084
:10110000C1E0D0E020E030E0A901C701B6010E94B3
:10111000B91587FF03C0D195C195D109CE01DF91E3
:10112000CF91FF90EF90DF90CF90BF90AF909F90C6
:101130008F900895CF92DF92EF92FF926B017C0126
:1011400020E030E0A9010E94B915181644F520E00E
:1011500030E040E151E4C701B6010E9406139B0153
:10116000AC0160E070EE8BEA95E40E9404149B01F0
:10117000AC0160E070E88AEC93E40E9405139B01E7
:10118000AC0160E070E088EC93E40E9405130E94DB
:101190007614CB01FF90EF90DF90CF90089520E080
:1011A00030E0A901C701B6010E94FF1370E060E0C2
:1011B00087FFEFCF20E030E040E151E4C701B60106
:1011C0000E9405139B01AC0160E070EE8BEA95E490
:1011D0000E9404149B01AC0160E070E88AEC93EC7F
:1011E0000E9405139B01AC0160E070E088EC93EC79
:1011F000CCCF9C019FB7F8943093D1032093D003B8
:101200007093CF036093CE039FBF08950F931F93F6
:10121000CF93DF93EC01072E000C880B990B0E94F3
:10122000AE140E9444088C01BE01DD0F880B990B9F
:101230000E94AE140E944408B801DF91CF911F9123
:101240000F910C94F9088FB7F8941092D203109272
:10125000D1031092D0031092CF031092CE038FBF10
:101260005F985D980895579A569A559A549A0C9497
:1012700023098FB7F89491E09093D2038FBF08951C
:101280002FB7F8948091D0039091D1032FBF089588
:101290002FB7F8948091CE039091CF032FBF08957C
:1012A0008BB19091C5039923E9F08F75806490917B
:1012B00003019923C9F080619091D203911116C066
:1012C0001092CD031092CC031092CB031092CA035C
:1012D0001092C9031092C8031092C7031092C6035C
:1012E0008BB908958F71E3CF8F7EE6CF2091D00325
:1012F0003091D103232BA1F41092CD031092CC0393
:101300001092C9031092C8032091CE033091CF03ED
:10131000232B09F054C01092CB031092CA03DCCFE8
:101320002091C8033091C903232BD9F42091D00315
:101330003091D10337FF03C03195219531093093A6
:10134000C9032093C8032091D0033091D103932F78
:10135000991F9927991F9093C5031092CD0310925E
:10136000CC032091CC033091CD032F5F3F4F3093BE
:10137000CD032093CC034091C8035091C903421779
:10138000530710F680681092CD031092CC03209181
:10139000D0033091D10337FF03C031952195310936
:1013A0003093C9032093C8032091D0033091D10317
:1013B000932F991F9927991F9093C503A5CF20912B
:1013C000C6033091C703232BE1F42091CE03309163
:1013D000CF0337FF03C03195219531093093C703FF
:1013E0002093C6032091CE033091CF03932F909585
:1013F000991F9927991F909303011092CB03109284
:10140000CA032091CA033091CB032F5F3F4F309323
:10141000CB032093CA034091C6035091C7034217E0
:10142000530708F05DCF80621092CB031092CA037D
:101430002091CE033091CF0337FF03C03195219522
:1014400031093093C7032093C6032091CE03309116
:10145000CF03932F9095991F9927991F909303017C
:101460003FCF84E091E008951F93CF93DF9300D0A6
:1014700000D0CDB7DEB740E06BE688E60E94DD071E
:10148000182F6CEE71E0882309F463C01A82198268
:1014900089819A8188399A4350F11C8221E0AE01FA
:1014A0004C5F5F4F65E788E60E94FB07182F61E0FD
:1014B00072E0882309F44DC08C818836F1F08237C0
:1014C000E1F01F928F9387E192E09F938F931F9299
:1014D00080E48F9384E091E09F938F930E9499160C
:1014E0000FB6F894DEBF0FBECDBF10E036C08981C5
:1014F0009A8101969A838983CBCF43E06AE188E69B
:101500000E94DD07182F61E472E0882311F140E0AA
:101510006BE188E60E94DD07182F62E572E0882300
:10152000C1F048E06CE188E60E94DD07182F65E60F
:1015300072E0882371F01B8221E0AE014D5F5F4FA6
:101540006CE188E60E94FB07182F81110FC069E744
:1015500072E084E091E00E949216812F0F900F902C
:101560000F900F90DF91CF911F9108958B81982F4D
:101570009871983029F01F928F9380E992E0A5CF5F
:101580001F928F938C811F928F9386EB92E09F9393
:101590008F931F9280E48F9384E091E09F938F93C9
:1015A0000E9499160FB6F894DEBF0FBECDBFD5CFFF
:1015B0000F931F93CF93DF93CDB7DEB72E970FB660
:1015C000F894DEBF0FBECDBF8C012EE0AE014F5FA1
:1015D0005F4F6BE388E60E94FB07882359F129815E
:1015E0003A81322723273227F801318320832B8148
:1015F0003C81322723273227338322832D813E816A
:101600003227232732273583248329853A853227B9
:1016100023273227378326832B853C8532272327B0
:101620003227318720872D853E8532272327322791
:10163000338722872E960FB6F894DEBF0FBECDBF3C
:10164000DF91CF911F910F9108951092DD031092B9
:10165000DE031092DF031092E0031092D903109280
:10166000DA031092DB031092DC031092D503109280
:10167000D6031092D7031092D8031092D40310927D
:10168000D30308953F924F925F926F927F928F9211
:101690009F92AF92BF92CF92DF92EF92FF920F9301
:1016A0001F93CF93DF93CDB7DEB72C970FB6F89487
:1016B000DEBF0FBECDBF0097D1F4312C832D2C9609
:1016C0000FB6F894DEBF0FBECDBFDF91CF911F9153
:1016D0000F91FF90EF90DF90CF90BF90AF909F90D1
:1016E0008F907F906F905F904F903F9008958C0106
:1016F000FC011082CE0101960E94D80A382E882360
:10170000E1F28F809884092C000CAA08BB08809114
:10171000DD039091DE03A091DF03B091E003880E1A
:10172000991EAA1EBB1E8092DD039092DE03A0923A
:10173000DF03B092E003C984DA840D2C000CEE08BC
:10174000FF088091D9039091DA03A091DB03B09157
:10175000DC03C80ED91EEA1EFB1EC092D903D0922C
:10176000DA03E092DB03F092DC034B845C84052C0B
:10177000000C660877088091D5039091D603A0915C
:10178000D703B091D803480E591E6A1E7B1E4092A3
:10179000D5035092D6036092D7037092D8038091FC
:1017A000D3039091D40301969093D4038093D303F1
:1017B000843F914008F482CFC501B4010E94AE1469
:1017C00020E03CED4FE757E40E9404146093ED03E2
:1017D0007093EE038093EF039093F003C701B6017B
:1017E0000E94AE1420E03CED4FE757E40E94041441
:1017F0006093E9037093EA038093EB039093EC0307
:10180000C301B2010E94AE1420E03CED4FE757E463
:101810000E9404146093E5037093E6038093E7034A
:101820009093E80384EF482E55245394612C712C37
:10183000C501B401A30192010E94D2123093E403C6
:101840002093E303C701B601A30192010E94D212C3
:101850003093E2032093E10381E0F80180832ECFEF
:101860003F924F925F926F927F928F929F92AF9230
:10187000BF92CF92DF92EF92FF920F931F93CF937D
:10188000DF93CDB7DEB72C970FB6F894DEBF0FBE4F
:10189000CDBF04EF11E0412C512C3201C12CD12CD1
:1018A0007601812C912C5401CE0101960E94D80A18
:1018B000382E882309F471C08F819885092E000C79
:1018C000AA0BBB0B880E991EAA1EBB1E89859A8582
:1018D000092E000CAA0BBB0BC80ED91EEA1EFB1E5C
:1018E0008B859C85092E000CAA0BBB0B480E591E3C
:1018F0006A1E7B1E01501109B9F6C501B4010E9490
:10190000AE1420E03CED4FE757E40E9404146093CE
:10191000ED037093EE038093EF039093F003C70100
:10192000B6010E94AE1420E03CED4FE757E40E9460
:1019300004146093E9037093EA038093EB0390939C
:10194000EC03C301B2010E94AE1420E03CED4FE76E
:1019500057E40E9404146093E5037093E6038093B8
:10196000E7039093E80384EF482E55245394612CA9
:10197000712CC501B401A30192010E94D2123093CF
:10198000E4032093E303C701B601A30192010E947F
:10199000D2123093E2032093E103832D2C960FB6ED
:1019A000F894DEBF0FBECDBFDF91CF911F910F9195
:1019B000FF90EF90DF90CF90BF90AF909F908F906F
:1019C0007F906F905F904F903F900895FF920F939C
:1019D0001F93CF93DF93CDB7DEB72C970FB6F89454
:1019E000DEBF0FBECDBF8C01CE0101960E94D80A8A
:1019F000F82E882309F490C069817A81072E000CA3
:101A0000880B990B0E94AE1420E030E040E059E3CF
:101A10000E94C615F80160837183828393836B8172
:101A20007C81072E000C880B990B0E94AE1420E0DD
:101A300030E040E059E30E94C615F80164837583E5
:101A4000868397836D817E81072E000C880B990B0E
:101A50000E94AE1420E030E040E059E30E94C61539
:101A6000F80160877187828793876F817885072E59
:101A7000000C880B990B0E94AE1420E030E043E08C
:101A800053E40E9404142091ED033091EE03409141
:101A9000EF035091F0030E940513F80164877587E6
:101AA0008687978769857A85072E000C880B990BA6
:101AB0000E94AE1420E030E043E053E40E9404149E
:101AC0002091E9033091EA034091EB035091EC033C
:101AD0000E940513F801608B718B828B938B6B8551
:101AE0007C85072E000C880B990B0E94AE1420E019
:101AF00030E043E053E40E9404142091E503309168
:101B0000E6034091E7035091E8030E940513F801B2
:101B1000648B758B868B978B8F2D2C960FB6F894D4
:101B2000DEBF0FBECDBFDF91CF911F910F91FF9010
:101B300008958091E1039091E20308958091E30379
:101B40009091E40308951092FD031092FE03109209
:101B5000FF03109200041092F9031092FA031092FE
:101B6000FB031092FC031092F5031092F6031092FF
:101B7000F7031092F8031092F1031092F2031092FF
:101B8000F3031092F4030895EF92FF920F931F93C3
:101B900060934C0170934D0180934E0190934F01DF
:101BA000209348013093490140934A0150934B01DF
:101BB000E0924401F09245010093460110934701E1
:101BC0001F910F91FF90EF9008954F925F926F9247
:101BD0007F928F929F92AF92BF92CF92DF92EF92BD
:101BE000FF920F93CF93DF93CDB7DEB728970FB651
:101BF000F894DEBF0FBECDBF4B015C012D833E8349
:101C00004F8358878091F5039091F603A091F703D5
:101C1000B091F80389839A83AB83BC839C01AD01A7
:101C2000C5010E9405132D813E814F8158850E9478
:101C300005136B017C014090F1035090F20360901A
:101C4000F3037090F40320E030E040E251E4C3017C
:101C5000B2010E94B915181654F020E030E040E2BD
:101C600051ECC301B2010E94FF1387FF10C02FE89F
:101C700032EC45E75CE3C301B2010E94C6159B014B
:101C8000AC01C701B6010E9406136B017C012091D3
:101C900048013091490140914A0150914B01C701DF
:101CA000B6010E94C6152091FD033091FE034091BC
:101CB000FF03509100040E9406132B013C0120E019
:101CC00030E048EC53E40E94B91518160CF400C13A
:101CD0004092FD035092FE036092FF037092000455
:101CE00020E030E048EC53EC6091FD037091FE037E
:101CF0008091FF03909100040E94FF1387FF0CC0A6
:101D000080E090E0A8ECB3EC8093FD039093FE0399
:101D1000A093FF03B093000420914C0130914D013A
:101D200040914E0150914F01C701B6010E94C61566
:101D30002091FD033091FE034091FF035091000478
:101D40000E9406132B013C012091F9033091FA0304
:101D50004091FB035091FC03C701B6010E9405139B
:101D60002091440130914501409146015091470135
:101D70000E94C6159B01AC01C301B2010E9406136B
:101D80002B013C0120E030E048EC53E40E94B915FF
:101D900018160CF4AAC04092F1035092F20360921C
:101DA000F3037092F40320E030E048EC53EC6091D0
:101DB000F1037091F2038091F3039091F4030E9478
:101DC000FF1387FF0CC080E090E0A8ECB3EC809399
:101DD000F1039093F203A093F303B093F403C09242
:101DE000F903D092FA03E092FB03F092FC03C09057
:101DF000F103D090F203E090F303F090F40320E0BD
:101E000030E040EA50E4C701B6010E94FF1387FFAB
:101E100079C020E030E040EA50ECC701B6010E94F2
:101E2000B91518160CF06EC01092F1031092F2035F
:101E30001092F3031092F4030023A1F020E030E0AD
:101E400040EF51E4C501B4010E94B915181654F0D1
:101E500020E030E040EF51ECC501B4010E94FF13D7
:101E600087FF18C01092F1031092F2031092F3034F
:101E70001092F4031092FD031092FE031092FF03E0
:101E8000109200041092F5031092F6031092F703DB
:101E90001092F8036091F1037091F2038091F303C3
:101EA0009091F40328960FB6F894DEBF0FBECDBF15
:101EB000DF91CF910F91FF90EF90DF90CF90BF9087
:101EC000AF909F908F907F906F905F904F9008950C
:101ED00080E090E0A8ECB3E48093FD039093FE03D0
:101EE000A093FF03B0930004FBCE80E090E0A8EC49
:101EF000B3E48093F1039093F203A093F303B093C0
:101F0000F40351CF20E030E0A9016D817E818F8103
:101F100098850E94FF1381118FCF20E030E0A90146
:101F2000C701B6010E94FF1387FF12C02FE632E1FE
:101F300043E05BE369817A818B819C810E94061377
:101F40006093F5037093F6038093F7039093F8037F
:101F500020E030E0A901C701B6010E94B9151816AA
:101F60000CF06ACF2FE632E143E05BE36091F503CA
:101F70007091F6038091F7039091F8030E94051386
:101F80006093F5037093F6038093F7039093F8033F
:101F900053CF1092F1031092F2031092F3031092B8
:101FA000F4031092FD031092FE031092FF031092AF
:101FB00000041092F5031092F6031092F7031092AA
:101FC000F8031092F9031092FA031092FB03109297
:101FD000FC0308956091F5037091F6038091F70377
:101FE0009091F803089582E084BD93E095BD99EF48
:101FF00097BDEEE6F0E09081926090838093B00010
:102000008093B10087E28093B300E0E7F0E0808145
:1020100082608083259A2D9808951F920F920FB6A3
:102020000F9211248F939F93AF93BF9380910504D8
:1020300090910604A0910704B09108040196A11D97
:10204000B11D8093050490930604A0930704B093F8
:102050000804809103048F5F80930304809103043C
:10206000843090F01092030480910404882349F096
:102070008091010490910204019690930204809350
:10208000010481E080930404BF91AF919F918F91EF
:102090000F900FBE0F901F9018951F920F920FB6C2
:1020A0000F9211242F933F934F935F936F937F93DE
:1020B0008F939F93AF93BF93EF93FF932D9A0E94BB
:1020C00050092D98FF91EF91BF91AF919F918F9102
:1020D0007F916F915F914F913F912F910F900FBE24
:1020E0000F901F9018952FB7F89460910504709188
:1020F000060480910704909108042FBF08958091F1
:10210000040481111092040408952FB7F89480916B
:102110000104909102042FBF08951092C50087E634
:102120008093C4001092C00086E08093C20088E1D2
:102130008093C1005098589A10920C0410920B048E
:1021400010920A041092090408951F920F920FB67C
:102150000F9211248F939F93EF93FF9390910C0410
:1021600080910B049817B9F0E0910B04F0E0E35F65
:10217000FB4F80818093C60080910B048F5F8F7727
:1021800080930B04FF91EF919F918F910F900FBE61
:102190000F901F9018958091C1008F7D8093C10092
:1021A000F1CFDC010097E9F1FC0101900020E9F793
:1021B0003197E81BF90B3E2F90910C0420910B04F2
:1021C000EE5F2150291B2F772E1710F12A2FFD01CA
:1021D000A92FB0E09F5F9F77A35FBB4F8E2F821B1D
:1021E000831708F18DE08C93E92FF0E0E35FFB4F5C
:1021F0008AE080839F5F9F772FB7F89490930C04B9
:102200008091C10080628093C1002FBF81E008955A
:102210008091090490910A04019690930A04809396
:10222000090480E0089581918C93D2CFDF92EF92E0
:10223000FF920F931F93CF93DF93CDB7DEB7C054B8
:10224000D1090FB6F894DEBF0FBECDBFD82E62ED18
:1022500072E0CE0101967C010E949216F701019076
:102260000020E9F78F010150110980E0D0FE0DC078
:1022700062EE72E0C8010E949216F80101900020FF
:10228000E9F78F010150110981E0D1FE0DC061EF26
:1022900072E0C8010E949216F80101900020E9F74F
:1022A0008F010150110981E0D2FE0DC064E073E09E
:1022B000C8010E949216F80101900020E9F78F01F1
:1022C0000150110981E060E173E0D3FC04C0811189
:1022D00005C06FE173E0C8010E949216C7010E9419
:1022E000D110C05CDF4F0FB6F894DEBF0FBECDBF7C
:1022F000DF91CF911F910F91FF90EF90DF900895A4
:102300008091090490910A0408956F927F928F92B0
:102310009F92AF92BF92CF92DF92EF92FF920F9374
:102320001F93CF93DF93CDB7DEB7C054D1090FB65B
:10233000F894DEBF0FBECDBFFC01CB01BA01722EF7
:10234000632E27E2822E23E0922EE830F10530F44E
:10235000EE0FFF1FE05BFE4F8080918020E030E0B9
:1023600040E251E40E94C6150E9476149B01BF9280
:10237000AF92DF92CF92FF92EF921F930F936F92E3
:102380007F92CB016AE070E00E949C1297FF03C02D
:102390009195819591099F938F93C9016AE070E0AF
:1023A0000E949C127F936F939F928F928BE293E097
:1023B0009F938F931F9280E48F938E010F5F1F4F27
:1023C0001F930F930E949916C8010E94D1100FB657
:1023D000F894DEBF0FBECDBFC05CDF4F0FB6F894E0
:1023E000DEBF0FBECDBFDF91CF911F910F91FF9048
:1023F000EF90DF90CF90BF90AF909F908F907F90A5
:102400006F900895CF93DF93CDB7DEB7C455D10950
:102410000FB6F894DEBF0FBECDBF14B714BE0FB613
:10242000F894A89580916000886180936000109274
:1024300060000FBE0E9433090E94E8010E948D10C7
:10244000812F0E9416111C9B0E94D6010E94F30F3F
:1024500078940E9456070E94340A8E010F5F1F4F26
:10246000811157C00E94310A9F938F9387EC91E0AE
:102470009F938F931F9280E58F931F930F930E94DA
:102480009916C8010E94D1100E94DA010FB6F89483
:10249000DEBF0FBECDBFC12CD12C76010E947F10B4
:1024A00081110E948B050E943B020E9473102B0138
:1024B0003C01DC01CB018C199D09AE09BF098436B2
:1024C0009105A105B10550F30E9480115C010E94A5
:1024D00085106C010E9448097C010E9440098C0112
:1024E0000E9436024C010E942D0265966CAF7DAFB2
:1024F0008EAF9FAF65970E942802940165964CAD00
:102500005DAD6EAD7FAD65970E948511730162016F
:10251000C5CF0E94310A9F938F9389ED91E09F93DD
:102520008F931F9280E58F931F930F930E949916AC
:10253000C8010E94D110AACF97FB072E16F4009471
:1025400007D077FD09D00E94F11207FC05D03EF4B8
:10255000909581959F4F0895709561957F4F08954F
:10256000A1E21A2EAA1BBB1BFD010DC0AA1FBB1F97
:10257000EE1FFF1FA217B307E407F50720F0A21B09
:10258000B30BE40BF50B661F771F881F991F1A9476
:1025900069F760957095809590959B01AC01BD01A0
:1025A000CF010895052E97FB1EF400940E94E912B6
:1025B00057FD07D00E94B01207FC03D04EF40C94D4
:1025C000E91250954095309521953F4F4F4F5F4F01
:1025D000089590958095709561957F4F8F4F9F4F8F
:1025E0000895AA1BBB1B51E107C0AA1FBB1FA6175A
:1025F000B70710F0A61BB70B881F991F5A95A9F7AC
:1026000080959095BC01CD0108955058BB27AA270D
:102610000E941D130C947F150E94711538F00E94C2
:10262000781520F039F49F3F19F426F40C943315F3
:102630000EF4E095E7FB0C942D15E92F0E94901500
:1026400058F3BA17620773078407950720F079F4E7
:10265000A6F50C94B2150EF4E0950B2EBA2FA02D12
:102660000B01B90190010C01CA01A0011124FF273F
:10267000591B99F0593F50F4503E68F11A16F0403A
:10268000A22F232F342F4427585FF3CF4695379539
:102690002795A795F0405395C9F77EF41F16BA0BFE
:1026A000620B730B840BBAF09150A1F0FF0FBB1FAC
:1026B000661F771F881FC2F70EC0BA0F621F731FF5
:1026C000841F48F4879577956795B795F7959E3F52
:1026D00008F0B0CF9395880F08F09927EE0F9795E3
:1026E000879508959F939F77EEE389379E0728F497
:1026F000E8E6F0E00E945D150CC00E94E9149058D5
:10270000A2EA2AED3FE049EC5FE30E941D130E941C
:102710007F150F9007FC905808950E94711560F086
:1027200080E891E009F49EEF0E94781528F040E8D7
:1027300051E071F45EEF0CC00C9433150C94B2159B
:10274000E92FE0780E94901540F3092E052AB1F395
:10275000261737074807590738F00E2E07F8E025E7
:1027600069F0E025E0640AC0EF6307F8009407FA17
:10277000DB01B9019D01DC01CA01AD01EF930E94AB
:102780001B140E947F150E94D0135F91552339F0CE
:102790002BED3FE049E450FD49EC0C9406130895FD
:1027A000DF93DD27B92FBF7740E85FE316161706E2
:1027B00048075B0718F4D92F0E94BE159F938F938B
:1027C0007F936F930E947916ECE7F0E00E94361534
:1027D0000E947F152F913F914F915F910E94D915D3
:1027E000DD2351F09058A2EA2AED3FE049EC5FE387
:1027F000D0785D270E941D13DF910C947F150E94F5
:10280000091508F481E008950E9418140C947F15AE
:102810000E94781558F00E94711540F029F45F3F2E
:1028200029F00C942D1551110C94B3150C943315FB
:102830000E94901568F39923B1F3552391F3951BEA
:10284000550BBB27AA2762177307840738F09F5FD1
:102850005F4F220F331F441FAA1FA9F335D00E2E3E
:102860003AF0E0E832D091505040E695001CCAF7AB
:102870002BD0FE2F29D0660F771F881FBB1F26176E
:1028800037074807AB07B0E809F0BB0B802DBF0145
:10289000FF2793585F4F3AF09E3F510578F00C9414
:1028A0002D150C94B3155F3FE4F3983ED4F3869551
:1028B00077956795B795F7959F5FC9F7880F911D35
:1028C0009695879597F90895E1E0660F771F881F21
:1028D000BB1F621773078407BA0720F0621B730BD4
:1028E000840BBA0BEE1F88F7E09508950E947D14C3
:1028F0006894B1110C94B31508950E94981588F04E
:102900009F5798F0B92F9927B751B0F0E1F0660FB3
:10291000771F881F991F1AF0BA95C9F714C0B130F4
:1029200091F00E94B215B1E008950C94B215672F92
:10293000782F8827B85F39F0B93FCCF38695779523
:102940006795B395D9F73EF490958095709561950C
:102950007F4F8F4F9F4F0895E89409C097FB3EF437
:1029600090958095709561957F4F8F4F9F4F9923DC
:10297000A9F0F92F96E9BB279395F695879577955A
:102980006795B795F111F8CFFAF4BB0F11F460FF1A
:102990001BC06F5F7F4F8F4F9F4F16C0882311F072
:1029A00096E911C0772321F09EE8872F762F05C086
:1029B000662371F096E8862F70E060E02AF09A9521
:1029C000660F771F881FDAF7880F9695879597F916
:1029D0000895DF93CF931F930F938B01EC01E9EAE6
:1029E000F0E00E9436150E947F159801AE018B0120
:1029F000EC0160E070E080E89FE30E9405130E9414
:102A000039169801AE010F911F91CF91DF910C946F
:102A1000D915990F0008550FAA0BE0E8FEEF16161E
:102A20001706E807F907C0F012161306E407F507C2
:102A300098F0621B730B840B950B39F40A2661F036
:102A4000232B242B252B21F408950A2609F4A140D9
:102A5000A6958FEF811D811D089597F99F6780E8E6
:102A600070E060E008959FEF80EC0895DF93CF93CE
:102A70001F930F93FF92EF92DF927B018C0168947A
:102A800006C0DA2EEF010E94D915FE01E894A59147
:102A90002591359145915591A6F3EF010E941D13A3
:102AA000FE019701A801DA9469F7DF90EF90FF909B
:102AB0000F911F91CF91DF9108959F938F937F93F3
:102AC0006F93FF93EF939B01AC010E94C615EF91AA
:102AD000FF910E9436152F913F914F915F910C9479
:102AE000C61500240A941616170618060906089536
:102AF00000240A9412161306140605060895092EDA
:102B00000394000C11F4882352F0BB0F40F4BF2B48
:102B100011F460FF04C06F5F7F4F8F4F9F4F089588
:102B200057FD9058440F551F59F05F3F71F047957E
:102B3000880F97FB991F61F09F3F79F08795089563
:102B4000121613061406551FF2CF4695F1DF08C082
:102B5000161617061806991FF1CF8695710561059F
:102B600008940895E894BB2766277727CB0197F947
:102B700008950E94091508F48FEF08959B01AC0198
:102B800060E070E080E89FE30C9404140E94D91583
:102B90000C947F150E94711538F00E94781520F072
:102BA000952311F00C942D150C94331511240C94CD
:102BB000B3150E94901570F3959FC1F3950F50E0E7
:102BC000551F629FF001729FBB27F00DB11D639FDF
:102BD000AA27F00DB11DAA1F649F6627B00DA11D85
:102BE000661F829F2227B00DA11D621F739FB00D2B
:102BF000A11D621F839FA00D611D221F749F33279B
:102C0000A00D611D231F849F600D211D822F762F33
:102C10006A2F11249F5750409AF0F1F088234AF010
:102C2000EE0FFF1FBB1F661F771F881F915050407C
:102C3000A9F79E3F510580F00C942D150C94B31507
:102C40005F3FE4F3983ED4F3869577956795B79503
:102C5000F795E7959F5FC1F7FE2B880F911D96951D
:102C6000879597F9089519F416F40C9433150C947C
:102C70007D160E949815B8F39923C9F3B6F39F57B0
:102C8000550B87FF0E948B160024A0E640EA9001B6
:102C900080585695979528F4805C660F771F881F9B
:102CA00020F026173707480730F4621B730B840B9C
:102CB000202931294A2BA6951794079420253125E0
:102CC0004A2758F7660F771F881F20F02617370707
:102CD000480730F4620B730B840B200D311D411D2E
:102CE000A09581F7B901842F9158880F9695879503
:102CF00008959B01AC010C94C6159F3F31F0915093
:102D000020F4879577956795B795880F911D9695CF
:102D1000879597F9089591505040660F771F881F47
:102D2000D2F70895FB01DC0101900D920020E1F73C
:102D30000895AEE0B0E0EFE9F6E10C9455190D8985
:102D40001E898F89988D26E02C831A83098397FF2B
:102D500002C080E090E801979E838D83AE01455EBE
:102D60005F4F698D7A8DCE0101960E94C9164D8103
:102D70005E8157FD0AC02F813885421753070CF436
:102D80009A01020F131FF80110822E96E4E00C94B2
:102D90007119ABE0B0E0EFECF6E10C9447197C015F
:102DA0003B018A01FC0117821682838181FFC8C121
:102DB000CE0101965C01F7019381F30193FD8591AA
:102DC00093FF81913F01882309F453C1853239F47F
:102DD00093FD859193FF81913F01853229F4B701DD
:102DE00090E00E94B918E7CF912C212C312CFFE103
:102DF000F31538F08B3211F190F4803209F18332FF
:102E000029F137FC3CC020ED280F2A3050F536FE62
:102E100020C08AE0989E200D1124922E06C08D328B
:102E200091F0803371F7689430F8F30193FD859148
:102E300093FF81913F018111DACF21C0689431F86D
:102E4000689432F8F2CF689433F8EFCF689434F88E
:102E5000ECCFEAE02E9E200D1124222E689435F846
:102E6000E4CF8E3229F436FC04C1689436F8DDCF05
:102E70008C3619F4689437F8D8CF8836B1F2982F89
:102E80009F7D95549330E0F08336A1F18337C1F1F3
:102E9000833509F063C02801F2E04F0E511CF801A0
:102EA000C080D180692D70E036FC02C06FEF7FEFEB
:102EB000C6010E94A3184C01689437F882010AC029
:102EC0000C5F1F4FFFE3F98388248394912C6501E5
:102ED000E89437F833FE2DC0522C8114910471F51B
:102EE000552009F468CFB70180E290E00E94B9183C
:102EF0005A94F6CFF801808189830E5F1F4FE4CF8B
:102F00002801F2E04F0E511CF801C080D180692DDC
:102F100070E036FC02C06FEF7FEFC6010E94AE1872
:102F20004C018201D5CFB70180E290E00E94B91830
:102F30002A942814190409F0B0F7CECFF60137FC13
:102F4000859137FE81916F01B70190E00E94B91819
:102F500051105A94F1E08F1A9108BFCF843619F0BE
:102F6000893609F077C0F80137FE6BC06081718146
:102F7000828193810C5F1F4FF32DFF763F2E97FFC9
:102F800009C090958095709561957F4F8F4F9F4FA9
:102F9000689437F82AE030E0A5010E94E918C82EAD
:102FA000CA188C2C432C36FE0CC0E89440F8C91487
:102FB00040F434FE05C032FC03C0F32DFE7E4F2EDC
:102FC000892C44FE95C0FE01EC0DF11D80818033FB
:102FD00009F087C0242D297E422E842D8870582E1A
:102FE00043FC95C040FE8FC09C2C821418F42C0C1E
:102FF000922C981844FE91C0B70180E390E00E94A3
:10300000B91842FE09C088E790E041FE02C088E599
:1030100090E0B7010E94B918C91408F48AC0CA9494
:10302000D12C9FEFC91AD90ACA0CDB1CF601829178
:103030006F01B70190E00E94B918AC14BD04B1F75C
:103040004FCF60817181072E000C880B990B0E5FAA
:103050001F4F92CFD32CE894D4F82AE030E0853784
:1030600039F1232D297FD22E8F3601F148F488358E
:10307000A9F0F701868197812B96E2E10C94631900
:10308000803749F08837A9F7D4FE02C06894D2F897
:1030900020E130E00DC06894D4F8F6CF34FE03C0D0
:1030A000822F8660D82E20E132E002C028E030E096
:1030B000F801D7FE0FC060817181828193810C5F1E
:1030C0001F4FA5010E94E918C82ECA183D2CE8948C
:1030D00037F867CF6081718190E080E00E5F1F4F0D
:1030E000F0CF42FC02C0839478CF8394839475CF51
:1030F000842D867809F471CFF6CFB70180E290E095
:103100000E94B91883948214C0F3512C73CF522CAF
:103110005818821408F46ECFF8CF842D867809F4FD
:103120007BCF8BE241FE80E247FC8DE2B70190E06D
:1031300071CFB70180E390E00E94B9189A946CCFE8
:103140008FEF9FEF99CFFC01059061507040011007
:10315000D8F7809590958E0F9F1F0895FC016150C0
:10316000704001900110D8F7809590958E0F9F1FA9
:1031700008950F931F93CF93DF93182F092FEB011F
:103180008B8181FD09C01FEF0FEF812F902FDF9101
:10319000CF911F910F91089582FF14C02E813F811E
:1031A0008C819D81281739073CF4E881F981CF0192
:1031B00001969983888310838E819F8101969F83D6
:1031C0008E83E3CFE885F985812F0995892BA1F3BB
:1031D000DACFFA01AA27283051F1203181F1E894A1
:1031E0006F936E7F6E5F7F4F8F4F9F4FAF4FB1E0FA
:1031F0003ED0B4E03CD0670F781F891F9A1FA11DF5
:10320000680F791F8A1F911DA11D6A0F711D811DF5
:10321000911DA11D20D009F468943F912AE0269FBA
:1032200011243019305D3193DEF6CF010895462F19
:103230004770405D4193B3E00FD0C9F7F6CF462FFA
:103240004F70405D4A3318F0495D31FD4052419363
:1032500002D0A9F7EACFB4E0A69597958795779520
:103260006795BA95C9F700976105710508959B01A7
:10327000AC010A2E06945795479537952795BA9530
:10328000C9F7620F731F841F951FA01D08952F9209
:103290003F924F925F926F927F928F929F92AF92E6
:1032A000BF92CF92DF92EF92FF920F931F93CF9333
:1032B000DF93CDB7DEB7CA1BDB0B0FB6F894DEBFCA
:1032C0000FBECDBF09942A88398848885F846E84F0
:1032D0007D848C849B84AA84B984C884DF80EE803A
:1032E000FD800C811B81AA81B981CE0FD11D0FB643
:1032F000F894DEBF0FBECDBFED010895F894FFCF67
:1033000005000101434855415F4B484F495F544117
:103310004F0000000000000000000000000000005E
:10332000000000000000000000000000000000009D
:10333000000000000000000000000000000000008D
:103340000000000000002041CDCCCC3E00004041F8
:10335000510356035B03600365036A036F03740341
:103360005B4F46465345545D2044414E4720444FF1
:1033700020353030204D41552054414920444945A5
:103380004D2043414E2042414E472E2E2E2047498C
:10339000552059454E20584521005B4F4646534520
:1033A000545D204B45542051554120353030204D3F
:1033B00041553A205A5F7261775F617667203D2000
:1033C0002564204C5342005B4552525D204D5055C0
:1033D000363035303A202573005B494E464F5D202C
:1033E0004D5055363035303A202573005057525FD6
:1033F0004D474D545F312077726974652065727254
:103400000057484F5F414D5F492049324320726564
:103410006164206572720057484F5F414D5F4920DB
:103420006D69736D617463683A2030782530325865
:10343000202865787020307836382F307837322958
:1034400000434F4E46494720777269746520657284
:1034500072004759524F5F4346472077726974653F
:103460002065727200414343454C5F4346472077D5
:10347000726974652065727200414343454C5F4335
:1034800046472049324320726561642065727200AC
:10349000414343454C5F434647206D69736D6174FA
:1034A00063683A20307825303258202865787020BB
:1034B0003078303829004F4B202857484F3D30781E
:1034C000253032582C204346473D3078253032583D
:1034D00029005B52455345545D204D435553523AA4
:1034E0002000504F52284361704E67756F6E29203F
:1034F00000455854284E757452657365742F4E619B
:1035000070292000424F52285375744170292000C1
:10351000574452285761746368646F6729200055C7
:103520004E4B4E4F574E00554E4B005B25735D2062
:10353000503A25642E2564205A3A25642054687236
:103540003A25642F2564204D3A257520443A257587
:1035500000494E49540043414C49005245445900EA
:1035600042414C410046414C4C0053544F500044A2
:0A357000475F410044475F4D000033
:00000001FF
