:100000000C944B000C9468000C9468000C946800ED
:100010000C9468000C9468000C9468000C9480099F
:100020000C9468000C9468000C9468000C946800B0
:100030000C9468000C9468000C944D090C946800B2
:100040000C9468000C9468000C9468000C94680090
:100050000C9468000C9468000C9468000C94680080
:100060000C9468000C946800084AD73B3BCE016EA4
:1000700084BCBFFDC12F3D6C74319ABD56833DDAFF
:100080003D00C77F11BED9E4BB4C3E916BAAAABE0E
:10009000000000803F0011241FBECFEFD8E0DEBF7C
:1000A000CDBF11E0A0E0B1E0E0ECF9E102C00590C5
:1000B0000D92A230B107D9F721E0A2E0B1E001C072
:1000C0001D92AA36B207E1F70E94B6090C94DE0C25
:1000D0000C9400008F929F92AF92BF92CF92DF92CA
:1000E000EF92FF920F931F93CF93DF93EC0119824E
:1000F00018821EA61FA618AA19AA1BAA1AAA1CAA09
:100100001DAA0FE612E123E83BE348E451EE6AE75B
:100110007FE302960E945C0184E48F938AEF8F93C1
:100120001F921F92812C912C88ECA82E82E4B82E6D
:10013000C12CD12CE12C9FE3F92E0DEC1CEC2CE40E
:100140003FE340E050E060E771E4CE0142960E9458
:100150000D080F900F900F900F90DF91CF911F918E
:100160000F91FF90EF90DF90CF90BF90AF909F9056
:100170008F900895FC0113AA12AA14AA42960C9417
:100180002B09FC01718360836230710529F0645092
:1001900071096230710510F40C94BA0008958F92C1
:1001A0009F92AF92BF92CF92DF92EF92FF920F9306
:1001B0001F93CF93DF93EC014A015B01C901B801A2
:1001C0009058A50194010E947B0AF7FAF094F7F881
:1001D000F09421EE3EE245E652E40E946D0C2BE2E3
:1001E00037E846E35FE30E94FC09AB01BC019701DD
:1001F0008601CE0102960E9472014B015C018EA61F
:100200009FA6A8AAB9AA888199818230910531F068
:10021000039749F1CE010E94BA0016C0C501B4018E
:100220009F7720E030E040E050E40E94DA0A87FF48
:1002300009C083E090E099838883CE010E94BA00D0
:1002400081E08CAB1BAA1AAA8AA99BA9DF91CF9146
:100250001F910F91FF90EF90DF90CF90BF90AF90E4
:100260009F908F90089520E030E044E352E4C50170
:10027000B4019F770E94600C18163CF484E090E073
:100280009983888381E08DABC5CF8FE6C82E82E14C
:10029000D82E83E8E82E8BE3F82E9501840140E008
:1002A00050E0BA01CE0142960E94490890580E943F
:1002B000510B7BAB6AABC8CF0F931F93FC0110822D
:1002C000118212821382148215821682178240874D
:1002D00051876287738704871587268737871F9121
:1002E0000F9108954F925F926F927F928F929F929B
:1002F000AF92BF92CF92DF92EF92FF920F931F9334
:10030000CF93DF93EC014A015B01C901B8016C8313
:100310007D838E839F83C884D984EA84FB842C8563
:100320003D854E855F850E946D0C288139814A810B
:100330005B810E94FC09A70196010E946D0C2B01B4
:100340003C01A701960160E070E080E89FE30E9415
:10035000FB09A50194010E946D0C9B01AC01C30136
:10036000B2010E94FC09688379838A839B83DF91B1
:10037000CF911F910F91FF90EF90DF90CF90BF90A2
:10038000AF909F908F907F906F905F904F90089567
:10039000CF93DF93EC012A9A0E94A4096C0F7D1F72
:1003A000811D911D609307017093080180930901DD
:1003B00090930A01DF91CF91089581E08093060127
:1003C00085E090E090933C0180933B010C94D20433
:1003D0008091060108958F929F92AF92BF92CF9223
:1003E000DF92EF92FF920F931F93229A2A982498FC
:1003F0002C9A0FE612E123E83BE348E451EE6AE76A
:100400007FE38BE291E00E945C0184E48F938AEFAA
:100410008F931F921F92812C912C88ECA82E82E43E
:10042000B82EC12CD12CE12C9FE3F92E0DEC1CEC45
:100430002CE43FE340E050E060E771E48FE091E0BE
:100440000E940D0810923C0110923B01109206018F
:100450001092020110920301109204011092050102
:100460000F900F900F900F901F910F91FF90EF90B2
:10047000DF90CF90BF90AF909F908F900C94D60557
:1004800080913B0190913C010895CF92DF92EF92D1
:10049000FF921F93CF93DF931F92CDB7DEB70E94D9
:1004A000A4096B017C0180910601882309F488C0AE
:1004B000C701B60128EE33E040E050E00E94D909C0
:1004C0006035710560F09B01205A310920353105F6
:1004D00030F0605471406035710508F06FC02A9AA1
:1004E00083B111E0982F907184FF10E0809100019A
:1004F0008823F1F191113CC080910B0190910C0186
:10050000A0910D01B0910E01A7019601281B390B96
:100510004A0B5B0BDA01C901893C9105A105B105C4
:1005200038F180913B0190913C01C0920B01D09237
:100530000C01E0920D01F0920E01209106012111B3
:1005400017C09C01225031092230310508F055C0F6
:1005500085E090E090933C0180933B010E94D2049F
:100560008FE091E00E942B0984E690E00E94C80190
:100570001093000180913B0190913C01009709F09C
:100580004FC082E390E00E94C80181E090E0909328
:100590003C0180933B010E94D605C0920201D0929B
:1005A0000301E0920401F09205010F90DF91CF91D9
:1005B0001F91FF90EF90DF90CF9008952A9890CFF1
:1005C0008091070190910801A0910901B0910A0161
:1005D0000097A105B10509F483CFC816D906EA062C
:1005E000FB0608F47DCF2A981092070110920801AB
:1005F0001092090110920A0173CF0497029708F034
:10060000B7CF82E090E090933C0180933B010E9441
:10061000D2048FE091E00E942B0982E390E0A6CF04
:10062000019719F68091020190910301A0910401B4
:10063000B0910501A7019601281B390B4A0B5B0BF2
:10064000DA01C9010397A105B10508F4AECFC09244
:100650000201D0920301E0920401F0920501198297
:10066000CE0101960E94F305811103C00E94DD01B5
:100670009CCF8981882309F498CF85E090E09093FE
:100680003C0180933B010E94D2048FE091E00E94E4
:100690002B0988EC90E00E94C80187CF8F929F922F
:1006A000AF92BF92CF92DF92EF92FF920F931F9380
:1006B000CF93DF93CDB7DEB768970FB6F894DEBF60
:1006C0000FBECDBFCE0101960E945A07882309F4C0
:1006D0004CC029813A814B815C8169857A858B8503
:1006E0009C8590580E947B0A89889A88AB88BC8830
:1006F000B7FAB094B7F8B09421EE3EE245E652E482
:100700000E946D0C2BE237E846E35FE30E94FC0990
:10071000AB01BC01950184018BE291E00E94720162
:100720004B015C0180913B0190913C01823091052D
:1007300029F0039769F10E94D20417C0C501B401E2
:100740009F7720E030E040E050E40E94DA0A87FF23
:100750000CC083E090E090933C0180933B018FE0DC
:1007600091E00E942B090E94F50468960FB6F89458
:10077000DEBF0FBECDBFDF91CF911F910F91FF90D4
:10078000EF90DF90CF90BF90AF909F908F900895A3
:1007900020E030E044E352E4C501B4019F770E94B9
:1007A000600C18168CF484E090E090933C018093E8
:1007B0003B010E94D2048FE091E00E942B098CE261
:1007C00091E00E94C801D1CF8FE6C82E82E1D82ED9
:1007D00083E8E82E8BE3F82E9501840140E050E099
:1007E000BA018FE091E00E94490890580E94510B95
:1007F000CB010E94BF04B9CF88EE93E02091BC00EA
:1008000027FF02C081E008950197C1F780E00895B5
:100810001092B9008CE08093B80084E08093BC0013
:100820000895CF93C82F84EA8093BC000E94FC03F4
:10083000882341F0C093BB0084E88093BC00CF9133
:100840000C94FC0380E0CF91089584E98093BC0070
:1008500088EE93E02091BC0024FF02C00197D1F7FD
:1008600008958093BB0084E88093BC000C94FC0343
:10087000CF93DF93EC0184EC8093BC000E94FC03D7
:10088000882319F09091BB009883DF91CF91089550
:10089000CF93DF93EC0184E88093BC000E94FC03BB
:1008A000882319F09091BB009883DF91CF91089530
:1008B000CF93DF93D62FC42F880F0E94110481118C
:1008C00007C00E942504C0E08C2FDF91CF910895CE
:1008D0008D2F0E9431048823A1F38C2F0E943104B4
:1008E000C82F882371F30E942504EECFAF92BF92E8
:1008F000CF92DF92FF920F931F93CF93DF93C82F76
:10090000D62F6A01022F880F0E94110481110EC098
:100910000E942504F12C8F2DDF91CF911F910F9113
:10092000FF90DF90CF90BF90AF9008958D2F0E94E1
:100930003104882369F38C2F880F81600E94110491
:10094000F82E882329F310E0D0E0C0E0580181E0C0
:10095000A81AB108C017D10719F40E942504DBCFEB
:10096000C6018C0F9D1FAC16BD0631F40E944804D1
:10097000882371F22196EECF0E943804F9CF90932C
:10098000480180934701709346016093450197FDAC
:1009900005C05E9A77FD04C05C9808955E98FACF12
:1009A0005C9A0895109249011092480110924701F3
:1009B000109246011092450110924101109242019D
:1009C000109243011092440110923D0110923E0199
:1009D00010923F01109240015F985D980895579AD8
:1009E000569A559A549A0C94D20481E08093490106
:1009F000089580914901811103C05F985D98089521
:100A0000809147019091480197FF03C0919581958E
:100A10009109092E000CAA0BBB0B4091410150918A
:100A200042016091430170914401840F951FA61FFC
:100A3000B71F8093410190934201A0934301B0936B
:100A40004401803523EC9207A105B10508F443C0A9
:100A50008055934CA109B1098093410190934201C3
:100A6000A0934301B09344015F9A80914501909116
:100A7000460197FF03C0919581959109092E000CBD
:100A8000AA0BBB0B40913D0150913E0160913F018B
:100A900070914001840F951FA61FB71F80933D01E1
:100AA00090933E01A0933F01B0934001803523EC29
:100AB0009207A105B10508F4A1CF8055934CA10977
:100AC000B10980933D0190933E01A0933F01B09303
:100AD00040015D9A08955F98C8CF40E06BE688E6D4
:100AE0000E945804882399F043E06AE188E60E9456
:100AF0005804882361F040E06BE188E60E945804C6
:100B0000882329F048E06CE188E60C94580480E0E2
:100B100008950F931F93CF93DF93CDB7DEB72E9732
:100B20000FB6F894DEBF0FBECDBF8C012EE0AE0134
:100B30004F5F5F4F6BE388E60E947604882359F18C
:100B400029813A81322723273227F80131832083F4
:100B50002B813C81322723273227338322832D8127
:100B60003E813227232732273583248329853A85FE
:100B7000322723273227378326832B853C8532274C
:100B800023273227318720872D853E85322723274B
:100B90003227338722872E960FB6F894DEBF0FBE1A
:100BA000CDBFDF91CF911F910F9108951092540105
:100BB0001092550110925601109257011092500157
:100BC00010925101109252011092530110924C0157
:100BD00010924D0110924E0110924F0110924B0154
:100BE00010924A0108957F928F929F92AF92BF9286
:100BF000CF92DF92EF92FF920F931F93CF93DF93E9
:100C0000CDB7DEB72C970FB6F894DEBF0FBECDBFC1
:100C10000097B1F4712C872D2C960FB6F894DEBF97
:100C20000FBECDBFDF91CF911F910F91FF90EF903D
:100C3000DF90CF90BF90AF909F908F907F9008955E
:100C40008C01FC011082CE0101960E948905782E4C
:100C5000882301F36F817885072E000C880B990B90
:100C6000C0905401D0905501E0905601F09057018A
:100C70006C0D7D1D8E1D9F1D609354017093550159
:100C8000809356019093570189849A84092C000C13
:100C9000AA08BB08C0905001D0905101E0905201C9
:100CA000F09053018C0C9D1CAE1CBF1C8092500117
:100CB00090925101A0925201B0925301CB84DC84F6
:100CC0000D2C000CEE08FF0820914C0130914D01D5
:100CD00040914E0150914F01C20ED31EE41EF51EED
:100CE000C0924C01D0924D01E0924E01F0924F0122
:100CF00020914A0130914B012F5F3F4F30934B01C0
:100D000020934A01243F314008F485CF0E94890B8B
:100D100020E03CED4FE757E40E94DF0A609360015A
:100D2000709361018093620190936301C501B401E6
:100D30000E94890B20E03CED4FE757E40E94DF0A58
:100D400060935C0170935D0180935E0190935F01FD
:100D5000C701B6010E94890B20E03CED4FE757E444
:100D60000E94DF0A609358017093590180935A01E1
:100D700090935B0181E0F80180834DCF3F924F92C9
:100D80005F926F927F928F929F92AF92BF92CF921B
:100D9000DF92EF92FF920F931F93CF93DF93CDB724
:100DA000DEB72C970FB6F894DEBF0FBECDBF04EFB1
:100DB00011E0C12CD12C7601812C912C5401412CB5
:100DC000512C3201CE0101960E948905382E8823CC
:100DD00009F457C08F819885092E000CAA0BBB0B14
:100DE000480E591E6A1E7B1E89859A85092E000CA5
:100DF000AA0BBB0B880E991EAA1EBB1E8B859C8559
:100E0000092E000CAA0BBB0BC80ED91EEA1EFB1E36
:100E100001501109B9F6C301B2010E94890B20E00B
:100E20003CED4FE757E40E94DF0A60936001709346
:100E300061018093620190936301C501B4010E9436
:100E4000890B20E03CED4FE757E40E94DF0A6093F6
:100E50005C0170935D0180935E0190935F01C70117
:100E6000B6010E94890B20E03CED4FE757E40E9459
:100E7000DF0A609358017093590180935A0190934F
:100E80005B01832D2C960FB6F894DEBF0FBECDBF4D
:100E9000DF91CF911F910F91FF90EF90DF90CF9056
:100EA000BF90AF909F908F907F906F905F904F908A
:100EB0003F900895FF920F931F93CF93DF93CDB789
:100EC000DEB72C970FB6F894DEBF0FBECDBF8C01F6
:100ED000CE0101960E948905F82E882309F490C05E
:100EE00069817A81072E000C880B990B0E94890B6F
:100EF00020E030E040E059E30E946D0CF80160838F
:100F00007183828393836B817C81072E000C880B15
:100F1000990B0E94890B20E030E040E059E30E94E9
:100F20006D0CF80164837583868397836D817E8160
:100F3000072E000C880B990B0E94890B20E030E0F3
:100F400040E059E30E946D0CF80160877187828749
:100F500093876F817885072E000C880B990B0E9470
:100F6000890B20E030E043E053E40E94DF0A209147
:100F700060013091610140916201509163010E94D2
:100F8000FB09F801648775878687978769857A8565
:100F9000072E000C880B990B0E94890B20E030E093
:100FA00043E053E40E94DF0A20915C0130915D012F
:100FB00040915E0150915F010E94FB09F801608B36
:100FC000718B828B938B6B857C85072E000C880B35
:100FD000990B0E94890B20E030E043E053E40E942B
:100FE000DF0A209158013091590140915A015091E6
:100FF0005B010E94FB09F801648B758B868B978BD4
:101000008F2D2C960FB6F894DEBF0FBECDBFDF91AB
:10101000CF911F910F91FF9008958F929F92AF9261
:10102000BF92CF92DF92EF92FF920F931F93CF93D5
:10103000DF93CDB7DEB7FC014083518362837383B6
:101040000483158326833783C086D186E286F386A0
:101050001486158616861786108A118A128A138AB4
:10106000848A958AA68AB78A8F859889A989BA8938
:10107000808F918FA28FB38FDF91CF911F910F91AE
:10108000FF90EF90DF90CF90BF90AF909F908F90A8
:1010900008954F925F926F927F928F929F92AF923C
:1010A000BF92CF92DF92EF92FF920F931F93CF9355
:1010B000DF9300D000D000D0CDB7DEB79E838D8304
:1010C000CB01BA01A90198010E94FB094B015C0107
:1010D00020E030E0A901C701B6010E94600C18169B
:1010E0000CF03FC0ED81FE8120893189428953890E
:1010F000C501B4010E94FB09A70196010E94DF0A05
:1011000069837A838B839C83ED81FE81808A918AB7
:10111000A28AB38AA7019601C501B4010E946D0C91
:10112000ED81FE8124853585468557850E94FC0921
:101130002B013C01ED81FE814486558666867786CB
:10114000C488D588E688F788A70196010E94600CBC
:10115000181664F4ED81FE81C486D586E686F7868E
:1011600011C019821A821B821C82CECFF7FAF0942A
:10117000F7F8F094A7019601C301B2010E94DA0AC0
:1011800087FDE8CFED81FE8124853585468557852D
:1011900064817581868197810E946D0C6B017C0151
:1011A000ED81FE812081318142815381C501B401ED
:1011B0000E946D0C9B01AC01C701B6010E94FC09A5
:1011C0006B017C01ED81FE8120853185428553854F
:1011D00069817A818B819C810E946D0C9B01AC019D
:1011E000C701B6010E94FC094B015C01ED81FE8143
:1011F000C08CD18CE28CF38C9B01AC01C701B60191
:101200000E94DA0A87FD0EC0F7FAF094F7F8F0941E
:101210009401A501C701B6010E94600C181614F0D4
:1012200064017501C701B60126960FB6F894DEBFBA
:101230000FBECDBFDF91CF911F910F91FF90EF9027
:10124000DF90CF90BF90AF909F908F907F906F90E6
:101250005F904F900895FC011486158616861786B8
:10126000108A118A128A138A089582E084BD93E05D
:1012700095BD99EF97BDEEE6F0E090819260908386
:101280008093B0008093B10087E28093B300E0E7E1
:10129000F0E080818260808308951F920F920FB6E4
:1012A0000F9211248F939F93AF93BF938091660108
:1012B00090916701A0916801B09169010196A11D0B
:1012C000B11D8093660190936701A0936801B0936C
:1012D0006901809164018F5F809364018091640152
:1012E000843028F01092640181E080936501BF9101
:1012F000AF919F918F910F900FBE0F901F901895F7
:101300001F920F920FB60F9211242F933F934F937A
:101310005F936F937F938F939F93AF93BF93EF935D
:10132000FF930E94F904FF91EF91BF91AF919F91BC
:101330008F917F916F915F914F913F912F910F907E
:101340000FBE0F901F9018952FB7F894609166010B
:101350007091670180916801909169012FBF089594
:1013600080916501811110926501089514BE0FB638
:10137000F894A89580916000886180936000109235
:1013800060000FBE0E94EF040E94EB010E9435092D
:1013900078940E9408040E946D05811102C00E9489
:1013A000DD010E94B00981110E944E030E94450296
:1013B000F8CFA1E21A2EAA1BBB1BFD010DC0AA1F6C
:1013C000BB1FEE1FFF1FA217B307E407F50720F0AE
:1013D000A21BB30BE40BF50B661F771F881F991F29
:1013E0001A9469F760957095809590959B01AC0172
:1013F000BD01CF0108955058BB27AA270E94130AA8
:101400000C94260C0E94180C38F00E941F0C20F03F
:1014100039F49F3F19F426F40C94EE0B0EF4E0958A
:10142000E7FB0C94E80BE92F0E94370C58F3BA172E
:10143000620773078407950720F079F4A6F50C94EA
:10144000590C0EF4E0950B2EBA2FA02D0B01B9010B
:1014500090010C01CA01A0011124FF27591B99F02A
:10146000593F50F4503E68F11A16F040A22F232F36
:10147000342F4427585FF3CF469537952795A79586
:10148000F0405395C9F77EF41F16BA0B620B730B2D
:10149000840BBAF09150A1F0FF0FBB1F661F771F9E
:1014A000881FC2F70EC0BA0F621F731F841F48F453
:1014B000879577956795B795F7959E3F08F0B0CFDC
:1014C0009395880F08F09927EE0F979587950895C3
:1014D0000E94180C60F080E891E009F49EEF0E94F1
:1014E0001F0C28F040E851E071F45EEF0CC00C9442
:1014F000EE0B0C94590CE92FE0780E94370C40F366
:10150000092E052AB1F3261737074807590738F07F
:101510000E2E07F8E02569F0E025E0640AC0EF63CD
:1015200007F8009407FADB01B9019D01DC01CA014B
:10153000AD01EF930E94F60A0E94260C0E94AB0AAE
:101540005F91552339F02BED3FE049E450FD49EC24
:101550000C94FC090895DF93DD27B92FBF7740E88D
:101560005FE31616170648075B0718F4D92F0E9489
:10157000650C9F938F937F936F930E94DA0CE8E63C
:10158000F0E00E94F10B0E94260C2F913F914F91A9
:101590005F910E94800CDD2351F09058A2EA2AED61
:1015A0003FE049EC5FE3D0785D270E94130ADF91AA
:1015B0000C94260C0E94C40B08F481E008950E944C
:1015C000F30A0C94260C0E941F0C58F00E94180C71
:1015D00040F029F45F3F29F00C94E80B51110C9472
:1015E0005A0C0C94EE0B0E94370C68F39923B1F35C
:1015F000552391F3951B550BBB27AA276217730739
:10160000840738F09F5F5F4F220F331F441FAA1FCC
:10161000A9F335D00E2E3AF0E0E832D09150504088
:10162000E695001CCAF72BD0FE2F29D0660F771F36
:10163000881FBB1F261737074807AB07B0E809F01C
:10164000BB0B802DBF01FF2793585F4F3AF09E3FA1
:10165000510578F00C94E80B0C945A0C5F3FE4F3BE
:10166000983ED4F3869577956795B795F7959F5FE4
:10167000C9F7880F911D9695879597F90895E1E030
:10168000660F771F881FBB1F621773078407BA078F
:1016900020F0621B730B840BBA0BEE1F88F7E095EA
:1016A00008950E94580B6894B1110C945A0C089537
:1016B0000E943F0C88F09F5798F0B92F9927B75197
:1016C000B0F0E1F0660F771F881F991F1AF0BA95E6
:1016D000C9F714C0B13091F00E94590CB1E00895DF
:1016E0000C94590C672F782F8827B85F39F0B93FD1
:1016F000CCF3869577956795B395D9F73EF4909599
:101700008095709561957F4F8F4F9F4F0895E89416
:1017100009C097FB3EF490958095709561957F4F39
:101720008F4F9F4F9923A9F0F92F96E9BB279395E7
:10173000F695879577956795B795F111F8CFFAF4F7
:10174000BB0F11F460FF1BC06F5F7F4F8F4F9F4F28
:1017500016C0882311F096E911C0772321F09EE886
:10176000872F762F05C0662371F096E8862F70E0EC
:1017700060E02AF09A95660F771F881FDAF7880FC6
:101780009695879597F90895990F0008550FAA0B1C
:10179000E0E8FEEF16161706E807F907C0F0121684
:1017A0001306E407F50798F0621B730B840B950B87
:1017B00039F40A2661F0232B242B252B21F40895DC
:1017C0000A2609F4A140A6958FEF811D811D089579
:1017D00097F99F6780E870E060E008959FEF80ECE4
:1017E0000895DF93CF931F930F93FF92EF92DF92B1
:1017F0007B018C01689406C0DA2EEF010E94800CF8
:10180000FE01E894A5912591359145915591A6F356
:10181000EF010E94130AFE019701A801DA9469F70B
:10182000DF90EF90FF900F911F91CF91DF9108957E
:1018300000240A94161617061806090608950024AF
:101840000A9412161306140605060895092E039429
:10185000000C11F4882352F0BB0F40F4BF2B11F49D
:1018600060FF04C06F5F7F4F8F4F9F4F089557FDFC
:101870009058440F551F59F05F3F71F04795880FFE
:1018800097FB991F61F09F3F79F087950895121695
:1018900013061406551FF2CF4695F1DF08C0161641
:1018A00017061806991FF1CF8695710561050894F2
:1018B0000895E894BB2766277727CB0197F9089509
:1018C0000E94C40B08F48FEF08959B01AC0160E007
:1018D00070E080E89FE30C94DF0A0E94800C0C9477
:1018E000260C0E94180C38F00E941F0C20F0952343
:1018F00011F00C94E80B0C94EE0B11240C945A0C80
:101900000E94370C70F3959FC1F3950F50E0551F5F
:10191000629FF001729FBB27F00DB11D639FAA2744
:10192000F00DB11DAA1F649F6627B00DA11D661F93
:10193000829F2227B00DA11D621F739FB00DA11DB4
:10194000621F839FA00D611D221F749F3327A00D6E
:10195000611D231F849F600D211D822F762F6A2F0A
:1019600011249F5750409AF0F1F088234AF0EE0F6F
:10197000FF1FBB1F661F771F881F91505040A9F79C
:101980009E3F510580F00C94E80B0C945A0C5F3F7D
:10199000E4F3983ED4F3869577956795B795F795D8
:1019A000E7959F5FC1F7FE2B880F911D9695879550
:1019B00097F908959B01AC010C946D0CF894FFCF3E
:0219C000010024
:00000001FF
