:100000000C944B000C9468000C9468000C946800ED
:100010000C9468000C9468000C9468000C944208DE
:100020000C9468000C9468000C9468000C946800B0
:100030000C9468000C9468000C940F080C946800F1
:100040000C9468000C9468000C9468000C94680090
:100050000C9468000C9468000C9468000C94680080
:100060000C9468000C946800084AD73B3BCE016EA4
:1000700084BCBFFDC12F3D6C74319ABD56833DDAFF
:100080003D00C77F11BED9E4BB4C3E916BAAAABE0E
:10009000000000803F0011241FBECFEFD8E0DEBF7C
:1000A000CDBF11E0A0E0B1E0E4E4F7E102C00590CB
:1000B0000D92A230B107D9F721E0A2E0B1E001C072
:1000C0001D92A835B207E1F70E9478080C94A00BA6
:1000D0000C9400008F929F92AF92BF92CF92DF92CA
:1000E000EF92FF920F931F93CF93DF93EC0119824E
:1000F00018821EA61FA618AA19AA1BAA1AAA1CAA09
:100100001DAA0FE612E123E83BE348E451EE6AE75B
:100110007FE302960E944F0184E48F938AEF8F93CE
:100120001F921F92812C912C88ECA82E82E4B82E6D
:10013000C12CD12CE12C9FE3F92E0DEC1CEC2CE40E
:100140003FE340E050E060E771E4CE0142960E9458
:10015000CF060F900F900F900F90DF91CF911F91CE
:100160000F91FF90EF90DF90CF90BF90AF909F9056
:100170008F900895FC0113AA12AA14AA42960C9417
:10018000ED07FC01718360836230710529F06450D2
:1001900071096230710510F40C94BA0008958F92C1
:1001A0009F92AF92BF92CF92DF92EF92FF920F9306
:1001B0001F93CF93DF93EC01CB01BA019058A901B3
:1001C00098010E943D0921EE3EE245E652E40E947C
:1001D0002F0BAB01BC0197018601CE0102960E9454
:1001E00065014B015C018EA69FA6A8AAB9AA8881C9
:1001F00099818230910531F0039749F1CE010E9437
:10020000BA0016C0C501B4019F7720E030E040E09D
:1002100050E40E949C0987FF09C083E090E0998325
:100220008883CE010E94BA0081E08CAB1BAA1AAA77
:100230008AA99BA9DF91CF911F910F91FF90EF9019
:10024000DF90CF90BF90AF909F908F90089520E067
:1002500030E044E352E4C501B4019F770E94220BD1
:1002600018163CF484E090E09983888381E08DAB9C
:10027000C5CF8FE6C82E82E1D82E83E8E82E8BE327
:10028000F82E9501840140E050E0BA01CE0142967B
:100290000E940B070E94130A7BAB6AABC9CF0F9376
:1002A0001F93FC0110821182128213821482158224
:1002B0001682178240875187628773870487158764
:1002C000268737871F910F9108954F925F926F9203
:1002D0007F928F929F92AF92BF92CF92DF92EF92D6
:1002E000FF920F931F93CF93DF93EC014A015B01C1
:1002F000C901B8016C837D838E839F83C884D984B0
:10030000EA84FB842C853D854E855F850E942F0BFA
:10031000288139814A815B810E94BE08A70196012C
:100320000E942F0B2B013C01A701960160E070E0B9
:1003300080E89FE30E94BD08A50194010E942F0B55
:100340009B01AC01C301B2010E94BE08688379839E
:100350008A839B83DF91CF911F910F91FF90EF9044
:10036000DF90CF90BF90AF909F908F907F906F90D5
:100370005F904F900895CF93DF93EC012A9A0E94EB
:1003800066086C0F7D1F811D911D609303017093A2
:1003900004018093050190930601DF91CF910895A8
:1003A00081E08093020185E090E090933801809392
:1003B00037010C947C048091020108958F929F92E2
:1003C000AF92BF92CF92DF92EF92FF920F931F9363
:1003D000229A2A9824982C9A0FE612E123E83BE30C
:1003E00048E451EE6AE77FE387E291E00E944F0123
:1003F00084E48F938AEF8F931F921F92812C912C0C
:1004000088ECA82E82E4B82EC12CD12CE12C9FE3DD
:10041000F92E0DEC1CEC2CE43FE340E050E060E7EB
:1004200071E48BE091E00E94CF06109238011092A7
:100430003701109202010F900F900F900F901F91B3
:100440000F91FF90EF90DF90CF90BF90AF909F9073
:100450008F90089580913701909138010895CF923F
:10046000DF92EF92FF92CF930E9466086B017C01AE
:1004700080910201882309F489C0C701B60128EEE2
:1004800033E040E050E00E949B086035710560F069
:100490009B01205A31092035310530F060547140FC
:1004A0006035710508F070C02A9A83B1C1E0982FB9
:1004B000907184FFC0E0809100018823F1F19111D7
:1004C0003CC08091070190910801A0910901B09171
:1004D0000A01A7019601281B390B4A0B5B0BDA01B5
:1004E000C901893C9105A105B10538F18091370119
:1004F00090913801C0920701D0920801E092090161
:10050000F0920A0120910201211117C09C01225092
:1005100031092230310508F056C085E090E0909313
:100520003801809337010E947C048BE091E00E94A7
:10053000ED0784E690E00E94BB01C093000180912A
:10054000370190913801892B09F057C082E390E080
:100550000E94BB0181E090E09093380180933701C5
:100560000E948005882309F441C082E090E09093C6
:1005700038018093370188EC90E0CF91FF90EF90A5
:10058000DF90CF900C94BB012A988FCF809103010C
:1005900090910401A0910501B09106010097A10579
:1005A000B10509F482CFC816D906EA06FB0608F49D
:1005B0007CCF2A9810920301109204011092050139
:1005C0001092060172CF0497029708F0B6CF82E02E
:1005D00090E090933801809337010E947C048BE077
:1005E00091E00E94ED0782E390E0A5CFCF91FF90CC
:1005F000EF90DF90CF900C94D001CF91FF90EF90CF
:10060000DF90CF9008958F929F92AF92BF92CF923A
:10061000DF92EF92FF920F931F93CF93DF93CDB7AB
:10062000DEB768970FB6F894DEBF0FBECDBFCE0120
:1006300001960E941C06882309F442C029853A8548
:100640004B855C8569817A818B819C8190580E9461
:100650003D0989889A88AB88BC8821EE3EE245E650
:1006600052E40E942F0BAB01BC019501840187E28B
:1006700091E00E9465014B015C01809137019091EE
:1006800038018230910529F0039769F10E947C04BA
:1006900017C0C501B4019F7720E030E040E050E48E
:1006A0000E949C0987FF0CC083E090E09093380182
:1006B000809337018BE091E00E94ED070E949F0438
:1006C00068960FB6F894DEBF0FBECDBFDF91CF9115
:1006D0001F910F91FF90EF90DF90CF90BF90AF9060
:1006E0009F908F90089520E030E044E352E4C501EC
:1006F000B4019F770E94220B18168CF484E090E0DE
:1007000090933801809337010E947C048BE091E044
:100710000E94ED078CE291E00E94BB01D1CF8FE6F1
:10072000C82E82E1D82E83E8E82E8BE3F82E9501BF
:10073000840140E050E0BA018BE091E00E940B0799
:100740000E94130ACB010E946904BACF88EE93E09D
:100750002091BC0027FF02C081E008950197C1F7F6
:1007600080E008951092B9008CE08093B80084E096
:100770008093BC000895CF93C82F84EA8093BC0077
:100780000E94A603882341F0C093BB0084E88093B5
:10079000BC00CF910C94A60380E0CF91089584E92A
:1007A0008093BC0088EE93E02091BC0024FF02C03F
:1007B0000197D1F708958093BB0084E88093BC0033
:1007C0000C94A603CF93DF93EC0184EC8093BC00E0
:1007D0000E94A603882319F09091BB009883DF91B3
:1007E000CF910895CF93DF93EC0184E88093BC0010
:1007F0000E94A603882319F09091BB009883DF9193
:10080000CF910895CF93DF93D62FC42F880F0E94E6
:10081000BB03811107C00E94CF03C0E08C2FDF9182
:10082000CF9108958D2F0E94DB038823A1F38C2F95
:100830000E94DB03C82F882371F30E94CF03EECF01
:10084000AF92BF92CF92DF92FF920F931F93CF93FD
:10085000DF93C82FD62F6A01022F880F0E94BB0397
:1008600081110EC00E94CF03F12C8F2DDF91CF910B
:100870001F910F91FF90DF90CF90BF90AF900895A0
:100880008D2F0E94DB03882369F38C2F880F8160F2
:100890000E94BB03F82E882329F310E0D0E0C0E0CB
:1008A000580181E0A81AB108C017D10719F40E94B5
:1008B000CF03DBCFC6018C0F9D1FAC16BD0631F4F4
:1008C0000E94F203882371F22196EECF0E94E20388
:1008D000F9CF909344018093430170934201609358
:1008E000410197FD05C05A9A77FD04C05C9A0895AE
:1008F0005A98FACF5C9808951092450110924401DD
:1009000010924301109242011092410110923D0158
:1009100010923E0110923F01109240011092390155
:1009200010923A0110923B0110923C015B985D9845
:100930000895539A529A559A549A0C947C0481E0E3
:1009400080934501089580914501811103C05B9812
:100950005D980895809143019091440197FF03C0F1
:10096000919581959109092E000CAA0BBB0B409122
:100970003D0150913E0160913F0170914001840F13
:10098000951FA61FB71F80933D0190933E01A09332
:100990003F01B0934001803523EC9207A105B105DA
:1009A00008F443C08055934CA109B10980933D01DF
:1009B00090933E01A0933F01B09340015B9A8091D8
:1009C00041019091420197FF03C091958195910952
:1009D000092E000CAA0BBB0B4091390150913A0132
:1009E00060913B0170913C01840F951FA61FB71FBA
:1009F0008093390190933A01A0933B01B0933C015D
:100A0000803523EC9207A105B10508F4A1CF8055EC
:100A1000934CA109B1098093390190933A01A093B5
:100A20003B01B0933C015D9A08955B98C8CF40E0CC
:100A30006BE688E60E940204882399F043E06AE1AD
:100A400088E60E940204882361F040E06BE188E6BA
:100A50000E940204882329F048E06CE188E60C94A7
:100A6000020480E008950F931F93CF93DF93CDB7D7
:100A7000DEB72E970FB6F894DEBF0FBECDBF8C0148
:100A80002EE0AE014F5F5F4F6BE388E60E942004CB
:100A9000882359F129813A81322723273227F80107
:100AA000318320832B813C813227232732273383D4
:100AB00022832D813E8132272327322735832483C9
:100AC00029853A85322723273227378326832B85AA
:100AD0003C85322723273227318720872D853E8585
:100AE000322723273227338722872E960FB6F89492
:100AF000DEBF0FBECDBFDF91CF911F910F91089543
:100B00003F924F925F926F927F928F929F92AF929D
:100B1000BF92CF92DF92EF92FF920F931F93CF93EA
:100B2000DF93CDB7DEB72C970FB6F894DEBF0FBEBC
:100B3000CDBF04EF11E0C12CD12C7601812C912C7A
:100B40005401412C512C3201CE0101960E943305F3
:100B5000382E882309F457C08F819885092E000C00
:100B6000AA0BBB0B480E591E6A1E7B1E89859A85EF
:100B7000092E000CAA0BBB0B880E991EAA1EBB1EC9
:100B80008B859C85092E000CAA0BBB0BC80ED91EA9
:100B9000EA1EFB1E01501109B9F6C301B2010E9401
:100BA0004B0A20E03CED4FE757E40E94A109609317
:100BB0004E0170934F018093500190935101C501F4
:100BC000B4010E944B0A20E03CED4FE757E40E943D
:100BD000A10960934A0170934B0180934C0190935B
:100BE0004D01C701B6010E944B0A20E03CED4FE7E2
:100BF00057E40E94A10960934601709347018093D6
:100C0000480190934901832D2C960FB6F894DEBFCE
:100C10000FBECDBFDF91CF911F910F91FF90EF904D
:100C2000DF90CF90BF90AF909F908F907F906F900C
:100C30005F904F903F900895FF920F931F93CF9333
:100C4000DF93CDB7DEB72C970FB6F894DEBF0FBE9B
:100C5000CDBF8C01CE0101960E943305F82E88236A
:100C600009F490C069817A81072E000C880B990BDA
:100C70000E944B0A20E030E040E059E30E942F0B35
:100C8000F80160837183828393836B817C81072E5B
:100C9000000C880B990B0E944B0A20E030E040E0EA
:100CA00059E30E942F0BF801648375838683978331
:100CB0006D817E81072E000C880B990B0E944B0AD8
:100CC00020E030E040E059E30E942F0BF8016087FC
:100CD0007187828793876F817885072E000C880B38
:100CE000990B0E944B0A20E030E043E053E40E945D
:100CF000A10920914E0130914F0140915001509136
:100D000051010E94BD08F80164877587868797871F
:100D100069857A85072E000C880B990B0E944B0A77
:100D200020E030E043E053E40E94A10920914A0111
:100D300030914B0140914C0150914D010E94BD08F2
:100D4000F801608B718B828B938B6B857C85072E72
:100D5000000C880B990B0E944B0A20E030E043E026
:100D600053E40E94A109209146013091470140912E
:100D70004801509149010E94BD08F801648B758BB0
:100D8000868B978B8F2D2C960FB6F894DEBF0FBEF7
:100D9000CDBFDF91CF911F910F91FF9008958F925A
:100DA0009F92AF92BF92CF92DF92EF92FF920F93FA
:100DB0001F93CF93DF93CDB7DEB7FC014083518300
:100DC000628373830483158326833783C086D18629
:100DD000E286F3861486158616861786108A118A8F
:100DE000128A138A848A958AA68AB78A8F859889F7
:100DF000A989BA89808F918FA28FB38FDF91CF910C
:100E00001F910F91FF90EF90DF90CF90BF90AF9028
:100E10009F908F9008954F925F926F927F928F92E2
:100E20009F92AF92BF92CF92DF92EF92FF920F9379
:100E30001F93CF93DF9300D000D000D0CDB7DEB7A3
:100E40009E838D83CB01BA01A90198010E94BD0840
:100E50004B015C0120E030E0A901C701B6010E940E
:100E6000220B18160CF03FC0ED81FE8120893189DC
:100E700042895389C501B4010E94BD08A7019601AA
:100E80000E94A10969837A838B839C83ED81FE8113
:100E9000808A918AA28AB38AA7019601C501B4010A
:100EA0000E942F0BED81FE8124853585468557856F
:100EB0000E94BE082B013C01ED81FE8144865586CF
:100EC00066867786C488D588E688F788A701960164
:100ED0000E94220B181664F4ED81FE81C486D5862B
:100EE000E686F78611C019821A821B821C82CECF39
:100EF000F7FAF094F7F8F094A7019601C301B20154
:100F00000E949C0987FDE8CFED81FE81248535850F
:100F10004685578564817581868197810E942F0B54
:100F20006B017C01ED81FE81208131814281538101
:100F3000C501B4010E942F0B9B01AC01C701B60192
:100F40000E94BE086B017C01ED81FE812085318508
:100F50004285538569817A818B819C810E942F0B08
:100F60009B01AC01C701B6010E94BE084B015C01A8
:100F7000ED81FE81C08CD18CE28CF38C9B01AC01A5
:100F8000C701B6010E949C0987FD0EC0F7FAF094D4
:100F9000F7F8F0949401A501C701B6010E94220B55
:100FA000181614F064017501C701B60126960FB634
:100FB000F894DEBF0FBECDBFDF91CF911F910F918F
:100FC000FF90EF90DF90CF90BF90AF909F908F9069
:100FD0007F906F905F904F900895FC011486158666
:100FE00016861786108A118A128A138A089582E05B
:100FF00084BD93E095BD99EF97BDEEE6F0E090815A
:10100000926090838093B0008093B10087E28093D8
:10101000B300E0E7F0E080818260808308951F9252
:101020000F920FB60F9211248F939F93AF93BF939C
:101030008091540190915501A0915601B0915701B2
:101040000196A11DB11D8093540190935501A09369
:101050005601B0935701809152018F5F80935201E6
:1010600080915201843028F01092520181E08093E7
:101070005301BF91AF919F918F910F900FBE0F9031
:101080001F9018951F920F920FB60F9211242F9355
:101090003F934F935F936F937F938F939F93AF9300
:1010A000BF93EF93FF930E94A304FF91EF91BF9131
:1010B000AF919F918F917F916F915F914F913F91F0
:1010C0002F910F900FBE0F901F9018952FB7F89487
:1010D0006091540170915501809156019091570192
:1010E0002FBF0895809153018111109253010895EB
:1010F00014BE0FB6F894A895809160008861809323
:101100006000109260000FBE0E9499040E94DE01F0
:101110000E94F70778940E94B2030E94170581117C
:1011200002C00E94D0010E94720881110E94030334
:101130000E942F02F8CFA1E21A2EAA1BBB1BFD01B1
:101140000DC0AA1FBB1FEE1FFF1FA217B307E407A6
:10115000F50720F0A21BB30BE40BF50B661F771FFE
:10116000881F991F1A9469F76095709580959095DE
:101170009B01AC01BD01CF0108955058BB27AA27A0
:101180000E94D5080C94E80A0E94DA0A38F00E94FE
:10119000E10A20F039F49F3F19F426F40C94B00AC8
:1011A0000EF4E095E7FB0C94AA0AE92F0E94F90AD5
:1011B00058F3BA17620773078407950720F079F48C
:1011C000A6F50C941B0B0EF4E0950B2EBA2FA02D58
:1011D0000B01B90190010C01CA01A0011124FF27E4
:1011E000591B99F0593F50F4503E68F11A16F040DF
:1011F000A22F232F342F4427585FF3CF46953795DE
:101200002795A795F0405395C9F77EF41F16BA0BA2
:10121000620B730B840BBAF09150A1F0FF0FBB1F50
:10122000661F771F881FC2F70EC0BA0F621F731F99
:10123000841F48F4879577956795B795F7959E3FF6
:1012400008F0B0CF9395880F08F09927EE0F979587
:10125000879508950E94DA0A60F080E891E009F429
:101260009EEF0E94E10A28F040E851E071F45EEF41
:101270000CC00C94B00A0C941B0BE92FE0780E9470
:10128000F90A40F3092E052AB1F326173707480754
:10129000590738F00E2E07F8E02569F0E025E064E4
:1012A0000AC0EF6307F8009407FADB01B9019D015A
:1012B000DC01CA01AD01EF930E94B8090E94E80A5F
:1012C0000E946D095F91552339F02BED3FE049E411
:1012D00050FD49EC0C94BE080895DF93DD27B92F2B
:1012E000BF7740E85FE31616170648075B0718F458
:1012F000D92F0E94270B9F938F937F936F930E9408
:101300009C0BE8E6F0E00E94B30A0E94E80A2F91E5
:101310003F914F915F910E94420BDD2351F0905815
:10132000A2EA2AED3FE049EC5FE3D0785D270E9416
:10133000D508DF910C94E80A0E94860A08F481E03F
:1013400008950E94B5090C94E80A0E94E10A58F039
:101350000E94DA0A40F029F45F3F29F00C94AA0AAF
:1013600051110C941C0B0C94B00A0E94F90A68F3FA
:101370009923B1F3552391F3951B550BBB27AA274E
:1013800062177307840738F09F5F5F4F220F331F88
:10139000441FAA1FA9F335D00E2E3AF0E0E832D050
:1013A00091505040E695001CCAF72BD0FE2F29D053
:1013B000660F771F881FBB1F261737074807AB0725
:1013C000B0E809F0BB0B802DBF01FF2793585F4F9A
:1013D0003AF09E3F510578F00C94AA0A0C941C0B2D
:1013E0005F3FE4F3983ED4F3869577956795B7957C
:1013F000F7959F5FC9F7880F911D9695879597F987
:101400000895E1E0660F771F881FBB1F62177307FF
:101410008407BA0720F0621B730B840BBA0BEE1F14
:1014200088F7E09508950E941A0A6894B1110C9407
:101430001C0B08950E94010B88F09F5798F0B92F5C
:101440009927B751B0F0E1F0660F771F881F991FF9
:101450001AF0BA95C9F714C0B13091F00E941B0B75
:10146000B1E008950C941B0B672F782F8827B85F85
:1014700039F0B93FCCF3869577956795B395D9F751
:101480003EF490958095709561957F4F8F4F9F4F5B
:101490000895E89409C097FB3EF490958095709567
:1014A00061957F4F8F4F9F4F9923A9F0F92F96E9B0
:1014B000BB279395F695879577956795B795F11125
:1014C000F8CFFAF4BB0F11F460FF1BC06F5F7F4FC2
:1014D0008F4F9F4F16C0882311F096E911C07723D4
:1014E00021F09EE8872F762F05C0662371F096E8DD
:1014F000862F70E060E02AF09A95660F771F881FAC
:10150000DAF7880F9695879597F90895990F00084F
:10151000550FAA0BE0E8FEEF16161706E807F907C5
:10152000C0F012161306E407F50798F0621B730B60
:10153000840B950B39F40A2661F0232B242B252BE1
:1015400021F408950A2609F4A140A6958FEF811D84
:10155000811D089597F99F6780E870E060E0089525
:101560009FEF80EC0895DF93CF931F930F93FF922B
:10157000EF92DF927B018C01689406C0DA2EEF01B6
:101580000E94420BFE01E894A59125913591459169
:101590005591A6F3EF010E94D508FE019701A8011D
:1015A000DA9469F7DF90EF90FF900F911F91CF9140
:1015B000DF91089500240A941616170618060906E6
:1015C000089500240A9412161306140605060895B9
:1015D000092E0394000C11F4882352F0BB0F40F441
:1015E000BF2B11F460FF04C06F5F7F4F8F4F9F4F81
:1015F000089557FD9058440F551F59F05F3F71F003
:101600004795880F97FB991F61F09F3F79F0879569
:101610000895121613061406551FF2CF4695F1DFF2
:1016200008C0161617061806991FF1CF8695710582
:10163000610508940895E894BB2766277727CB01B6
:1016400097F908950E94860A08F48FEF08959B0188
:10165000AC0160E070E080E89FE30C94A1090E9477
:10166000420B0C94E80A0E94DA0A38F00E94E10A60
:1016700020F0952311F00C94AA0A0C94B00A1124BE
:101680000C941C0B0E94F90A70F3959FC1F3950FFF
:1016900050E0551F629FF001729FBB27F00DB11DF6
:1016A000639FAA27F00DB11DAA1F649F6627B00D86
:1016B000A11D661F829F2227B00DA11D621F739F6F
:1016C000B00DA11D621F839FA00D611D221F749F7D
:1016D0003327A00D611D231F849F600D211D822FC4
:1016E000762F6A2F11249F5750409AF0F1F08823EB
:1016F0004AF0EE0FFF1FBB1F661F771F881F915018
:101700005040A9F79E3F510580F00C94AA0A0C9412
:101710001C0B5F3FE4F3983ED4F38695779567956D
:10172000B795F795E7959F5FC1F7FE2B880F911D41
:101730009695879597F908959B01AC010C942F0B12
:04174000F894FFCF4B
:021744000100A2
:00000001FF
