:100000000C944B000C9468000C9468000C946800ED
:100010000C9468000C9468000C9468000C94F80729
:100020000C9468000C9468000C9468000C946800B0
:100030000C9468000C9468000C94C5070C9468003C
:100040000C9468000C9468000C9468000C94680090
:100050000C9468000C9468000C9468000C94680080
:100060000C9468000C946800084AD73B3BCE016EA4
:1000700084BCBFFDC12F3D6C74319ABD56833DDAFF
:100080003D00C77F11BED9E4BB4C3E916BAAAABE0E
:10009000000000803F0011241FBECFEFD8E0DEBF7C
:1000A000CDBF11E0A0E0B1E0ECE4F6E102C00590C4
:1000B0000D92A230B107D9F721E0A2E0B1E001C072
:1000C0001D92A735B207E1F70E942E080C94240B6D
:1000D0000C9400008F929F92AF92BF92CF92DF92CA
:1000E000EF92FF920F931F93CF93DF93EC0119824E
:1000F00018821EA61FA618AA19AA1BAA1AAA1CAA09
:100100001DAA0FE612E123E83BE348E451EE6AE75B
:100110007FE302960E944F0184E48F938AEF8F93CE
:100120001F921F92812C912C88ECA82E82E4B82E6D
:10013000C12CD12CE12C9FE3F92E0DEC1CEC2CE40E
:100140003FE340E050E060E771E4CE0142960E9458
:1001500085060F900F900F900F90DF91CF911F9118
:100160000F91FF90EF90DF90CF90BF90AF909F9056
:100170008F900895FC0113AA12AA14AA42960C9417
:10018000A307FC01718360836230710529F064501C
:1001900071096230710510F40C94BA0008958F92C1
:1001A0009F92AF92BF92CF92DF92EF92FF920F9306
:1001B0001F93CF93DF93EC01CB01BA019058A901B3
:1001C00098010E94C10821EE3EE245E652E40E94F9
:1001D000B30AAB01BC0197018601CE0102960E94D1
:1001E00065014B015C018EA69FA6A8AAB9AA8881C9
:1001F00099818230910531F0039749F1CE010E9437
:10020000BA0016C0C501B4019F7720E030E040E09D
:1002100050E40E94200987FF09C083E090E09983A1
:100220008883CE010E94BA0081E08CAB1BAA1AAA77
:100230008AA99BA9DF91CF911F910F91FF90EF9019
:10024000DF90CF90BF90AF909F908F90089520E067
:1002500030E044E352E4C501B4019F770E94A60A4E
:1002600018163CF484E090E09983888381E08DAB9C
:10027000C5CF8FE6C82E82E1D82E83E8E82E8BE327
:10028000F82E9501840140E050E0BA01CE0142967B
:100290000E94C1060E9497097BAB6AABC9CF0F933E
:1002A0001F93FC0110821182128213821482158224
:1002B0001682178240875187628773870487158764
:1002C000268737871F910F9108954F925F926F9203
:1002D0007F928F929F92AF92BF92CF92DF92EF92D6
:1002E000FF920F931F93CF93DF93EC014A015B01C1
:1002F000C901B8016C837D838E839F83C884D984B0
:10030000EA84FB842C853D854E855F850E94B30A77
:10031000288139814A815B810E944208A7019601A8
:100320000E94B30A2B013C01A701960160E070E036
:1003300080E89FE30E944108A50194010E94B30A4E
:100340009B01AC01C301B2010E944208688379831A
:100350008A839B83DF91CF911F910F91FF90EF9044
:10036000DF90CF90BF90AF909F908F907F906F90D5
:100370005F904F900895CF93DF93EC012A9A0E94EB
:100380001C086C0F7D1F811D911D609302017093ED
:1003900003018093040190930501DF91CF910895AB
:1003A0008F929F92AF92BF92CF92DF92EF92FF9285
:1003B0000F931F93229A2A9824982C9A0FE612E101
:1003C00023E83BE348E451EE6AE77FE386E291E00D
:1003D0000E944F0184E48F938AEF8F931F921F92A4
:1003E000812C912C88ECA82E82E4B82EC12CD12C23
:1003F000E12C9FE3F92E0DEC1CEC2CE43FE340E0F4
:1004000050E060E771E48AE091E00E948506109276
:100410003701109236010F900F900F900F901F919F
:100420000F91FF90EF90DF90CF90BF90AF909F9093
:100430008F900895809136019091370108950F9320
:100440001F93CF930E941C08AB01BC018091020155
:1004500090910301A0910401B09105010097A105BD
:10046000B10571F0481759076A077B0748F02A98C9
:1004700010920201109203011092040110920501E2
:1004800083B1C1E0982F907184FFC0E0809100019A
:100490008823C9F1911137C080910601909107011D
:1004A000A0910801B09109018A019B01081B190B59
:1004B0002A0B3B0BD901C801893C9105A105B10567
:1004C00010F18091360190913701409306015093CD
:1004D000070160930801709309019C0122503109C2
:1004E0002230310598F585E090E0909337018093B4
:1004F00036010E9432048AE091E00E94A30784E65C
:1005000090E00E94BB01C093000180913601909160
:100510003701892B99F582E390E00E94BB0181E0CD
:1005200090E090933701809336010E94360588232E
:10053000F9F082E090E0909337018093360188ECE7
:1005400090E0CF911F910F910C94BB0104970297FB
:10055000D0F682E090E090933701809336010E94BC
:1005600032048AE091E00E94A30782E390E0C9CFC1
:1005700085E090E09093370180933601CF911F91F1
:100580000F9108958F929F92AF92BF92CF92DF9278
:10059000EF92FF920F931F93CF93DF93CDB7DEB708
:1005A00068970FB6F894DEBF0FBECDBFCE0101969F
:1005B0000E94D205882309F442C029853A854B85DB
:1005C0005C8569817A818B819C8190580E94C108E9
:1005D00089889A88AB88BC8821EE3EE245E652E4E1
:1005E0000E94B30AAB01BC019501840186E291E04F
:1005F0000E9465014B015C018091360190913701A9
:100600008230910529F0039769F10E94320417C0E6
:10061000C501B4019F7720E030E040E050E40E9443
:10062000200987FF0CC083E090E09093370180930E
:1006300036018AE091E00E94A3070E945504689663
:100640000FB6F894DEBF0FBECDBFDF91CF911F91E3
:100650000F91FF90EF90DF90CF90BF90AF909F9061
:100660008F90089520E030E044E352E4C501B401E6
:100670009F770E94A60A18168CF484E090E090936D
:100680003701809336010E9432048AE091E00E9493
:10069000A3078CE291E00E94BB01D1CF8FE6C82E68
:1006A00082E1D82E83E8E82E8BE3F82E95018401B1
:1006B00040E050E0BA018AE091E00E94C1060E9449
:1006C0009709CB010E941F04BACF88EE93E02091D6
:1006D000BC0027FF02C081E008950197C1F780E0C8
:1006E00008951092B9008CE08093B80084E0809364
:1006F000BC000895CF93C82F84EA8093BC000E9469
:100700006503882341F0C093BB0084E88093BC005C
:10071000CF910C94650380E0CF91089584E9809394
:10072000BC0008958093BB0084E88093BC000C94C7
:100730006503CF93DF93EC0184EC8093BC000E94AF
:100740006503882319F09091BB009883DF91CF91C6
:100750000895CF93DF93EC0184E88093BC000E945E
:100760006503882319F09091BB009883DF91CF91A6
:100770000895CF93DF93D62FC42F880F0E947A035A
:10078000811106C094E99093BC00DF91CF91089548
:100790008D2F0E9492038823A9F38C2F0E9492032D
:1007A000F1CFAF92BF92CF92DF92EF92FF920F9371
:1007B0001F93CF93182F062F6A01E22E880F0E94F5
:1007C0007A03C82F811104C084E98093BC0026C03D
:1007D000802F0E949203C82F8823B1F3812F880FA6
:1007E00081600E947A03C82F882371F3F12C10E0F6
:1007F00000E0570181E0A81AB108E016F10621F3E4
:10080000C601800F911FA016B10699F40E94A9039A
:10081000811112C084E98093BC00C0E08C2FCF917D
:100820001F910F91FF90EF90DF90CF90BF90AF900E
:1008300008950E949903ECCF0F5F1F4FDECF909376
:10084000430180934201709341016093400197FD01
:1008500005C05A9A77FD04C05C9A08955A98FACF59
:100860005C98089510924401109243011092420145
:10087000109241011092400110923C0110923D01F2
:1008800010923E0110923F011092380110923901EE
:1008900010923A0110923B015B985D980895539A2B
:1008A000529A559A549A0C94320481E080934401F0
:1008B000089580914401811103C05B985D9808956B
:1008C000809142019091430197FF03C091958195DA
:1008D0009109092E000CAA0BBB0B40913C015091D1
:1008E0003D0160913E0170913F01840F951FA61F4D
:1008F000B71F80933C0190933D01A0933E01B093BC
:100900003F01803523EC9207A105B10508F443C0EF
:100910008055934CA109B10980933C0190933D010E
:10092000A0933E01B0933F015B9A8091400190916A
:10093000410197FF03C0919581959109092E000C03
:10094000AA0BBB0B409138015091390160913A01DB
:1009500070913B01840F951FA61FB71F809338012C
:1009600090933901A0933A01B0933B01803523EC79
:100970009207A105B10508F4A1CF8055934CA109B8
:10098000B1098093380190933901A0933A01B09353
:100990003B015D9A08955B98C8CF40E06BE688E61E
:1009A0000E94B903882399F043E06AE188E60E9437
:1009B000B903882361F040E06BE188E60E94B90347
:1009C000882329F040E06CE188E60C94B90380E0CC
:1009D00008950F931F93CF93DF93CDB7DEB72E9774
:1009E0000FB6F894DEBF0FBECDBF8C012EE0AE0176
:1009F0004F5F5F4F6BE388E60E94D103882359F174
:100A000029813A81322723273227F8013183208335
:100A10002B813C81322723273227338322832D8168
:100A20003E813227232732273583248329853A853F
:100A3000322723273227378326832B853C8532278D
:100A400023273227318720872D853E85322723278C
:100A50003227338722872E960FB6F894DEBF0FBE5B
:100A6000CDBFDF91CF911F910F9108953F924F928B
:100A70005F926F927F928F929F92AF92BF92CF922E
:100A8000DF92EF92FF920F931F93CF93DF93CDB737
:100A9000DEB72C970FB6F894DEBF0FBECDBF04EFC4
:100AA00011E0C12CD12C7601812C912C5401412CC8
:100AB000512C3201CE0101960E94E904382E882380
:100AC00009F457C08F819885092E000CAA0BBB0B27
:100AD000480E591E6A1E7B1E89859A85092E000CB8
:100AE000AA0BBB0B880E991EAA1EBB1E8B859C856C
:100AF000092E000CAA0BBB0BC80ED91EEA1EFB1E4A
:100B000001501109B9F6C301B2010E94CF0920E0DA
:100B10003CED4FE757E40E94250960934D01709327
:100B20004E0180934F0190935001C501B4010E9482
:100B3000CF0920E03CED4FE757E40E942509609380
:100B4000490170934A0180934B0190934C01C70176
:100B5000B6010E94CF0920E03CED4FE757E40E9428
:100B60002509609345017093460180934701909356
:100B70004801832D2C960FB6F894DEBF0FBECDBF73
:100B8000DF91CF911F910F91FF90EF90DF90CF9069
:100B9000BF90AF909F908F907F906F905F904F909D
:100BA0003F900895FF920F931F93CF93DF93CDB79C
:100BB000DEB72C970FB6F894DEBF0FBECDBF8C0109
:100BC000CE0101960E94E904F82E882309F490C012
:100BD00069817A81072E000C880B990B0E94CF093E
:100BE00020E030E040E858E30E94B30AF801608357
:100BF0007183828393836B817C81072E000C880B29
:100C0000990B0E94CF0920E030E040E858E30E94B1
:100C1000B30AF80164837583868397836D817E812F
:100C2000072E000C880B990B0E94CF0920E030E0C2
:100C300040E858E30E94B30AF80160877187828711
:100C400093876F817885072E000C880B990B0E9483
:100C5000CF0920E030E043E053E40E9425092091D1
:100C60004D0130914E0140914F01509150010E9431
:100C70004108F801648775878687978769857A8533
:100C8000072E000C880B990B0E94CF0920E030E062
:100C900043E053E40E9425092091490130914A0123
:100CA00040914B0150914C010E944108F801608B2A
:100CB000718B828B938B6B857C85072E000C880B48
:100CC000990B0E94CF0920E030E043E053E40E94FA
:100CD00025092091450130914601409147015091ED
:100CE00048010E944108F801648B758B868B978BB5
:100CF0008F2D2C960FB6F894DEBF0FBECDBFDF91BF
:100D0000CF911F910F91FF9008958F929F92AF9274
:100D1000BF92CF92DF92EF92FF920F931F93CF93E8
:100D2000DF93CDB7DEB7FC014083518362837383C9
:100D30000483158326833783C086D186E286F386B3
:100D40001486158616861786108A118A128A138AC7
:100D5000848A958AA68AB78A8F859889A989BA894B
:100D6000808F918FA28FB38FDF91CF911F910F91C1
:100D7000FF90EF90DF90CF90BF90AF909F908F90BB
:100D800008954F925F926F927F928F929F92AF924F
:100D9000BF92CF92DF92EF92FF920F931F93CF9368
:100DA000DF9300D000D000D0CDB7DEB79E838D8317
:100DB000CB01BA01A90198010E9441084B015C01D5
:100DC00020E030E0A901C701B6010E94A60A18166A
:100DD0000CF03FC0ED81FE81208931894289538921
:100DE000C501B4010E944108A70196010E9425098E
:100DF00069837A838B839C83ED81FE81808A918ACB
:100E0000A28AB38AA7019601C501B4010E94B30A60
:100E1000ED81FE8124853585468557850E944208EF
:100E20002B013C01ED81FE814486558666867786DE
:100E3000C488D588E688F788A70196010E94A60A8B
:100E4000181664F4ED81FE81C486D586E686F786A1
:100E500011C019821A821B821C82CECFF7FAF0943D
:100E6000F7F8F094A7019601C301B2010E9420098E
:100E700087FDE8CFED81FE81248535854685578540
:100E800064817581868197810E94B30A6B017C0120
:100E9000ED81FE812081318142815381C501B40100
:100EA0000E94B30A9B01AC01C701B6010E9442082F
:100EB0006B017C01ED81FE81208531854285538562
:100EC00069817A818B819C810E94B30A9B01AC016C
:100ED000C701B6010E9442084B015C01ED81FE8111
:100EE000C08CD18CE28CF38C9B01AC01C701B601A4
:100EF0000E94200987FD0EC0F7FAF094F7F8F094ED
:100F00009401A501C701B6010E94A60A181614F0A3
:100F100064017501C701B60126960FB6F894DEBFCD
:100F20000FBECDBFDF91CF911F910F91FF90EF903A
:100F3000DF90CF90BF90AF909F908F907F906F90F9
:100F40005F904F900895FC011486158616861786CB
:100F5000108A118A128A138A089582E084BD93E070
:100F600095BD99EF97BDEEE6F0E090819260908399
:100F70008093B0008093B10087E28093B300E0E7F4
:100F8000F0E080818260808308951F920F920FB6F7
:100F90000F9211248F939F93AF93BF93809153012E
:100FA00090915401A0915501B09156010196A11D57
:100FB000B11D8093530190935401A0935501B093B8
:100FC0005601809151018F5F8093510180915101B1
:100FD000843028F01092510181E080935201BF913A
:100FE000AF919F918F910F900FBE0F901F9018950A
:100FF0001F920F920FB60F9211242F933F934F938E
:101000005F936F937F938F939F93AF93BF93EF9370
:10101000FF930E945904FF91EF91BF91AF919F916F
:101020008F917F916F915F914F913F912F910F9091
:101030000FBE0F901F9018952FB7F8946091530131
:101040007091540180915501909156012FBF0895E0
:101050008091520181111092520108950E947103F2
:101060000E94CD040E944F040E94D0010E94AD074F
:1010700078940E94280881110E94C2020E941F02D7
:10108000F8CF5058BB27AA270E9459080C946C0A25
:101090000E945E0A38F00E94650A20F039F49F3FF2
:1010A00019F426F40C94340A0EF4E095E7FB0C9442
:1010B0002E0AE92F0E947D0A58F3BA1762077307B8
:1010C0008407950720F079F4A6F50C949F0A0EF496
:1010D000E0950B2EBA2FA02D0B01B90190010C0148
:1010E000CA01A0011124FF27591B99F0593F50F460
:1010F000503E68F11A16F040A22F232F342F4427B8
:10110000585FF3CF469537952795A795F0405395AF
:10111000C9F77EF41F16BA0B620B730B840BBAF07F
:101120009150A1F0FF0FBB1F661F771F881FC2F7EA
:101130000EC0BA0F621F731F841F48F487957795FE
:101140006795B795F7959E3F08F0B0CF9395880FB8
:1011500008F09927EE0F9795879508950E945E0AEB
:1011600060F080E891E009F49EEF0E94650A28F0A3
:1011700040E851E071F45EEF0CC00C94340A0C941A
:101180009F0AE92FE0780E947D0A40F3092E052A84
:10119000B1F3261737074807590738F00E2E07F81E
:1011A000E02569F0E025E0640AC0EF6307F80094E9
:1011B00007FADB01B9019D01DC01CA01AD01EF9322
:1011C0000E943C090E946C0A0E94F1085F9155231D
:1011D00039F02BED3FE049E450FD49EC0C94420816
:1011E0000895DF93DD27B92FBF7740E85FE3161638
:1011F000170648075B0718F4D92F0E94AB0A9F9384
:101200008F937F936F930E94200BE8E6F0E00E949B
:10121000370A0E946C0A2F913F914F915F910E9473
:10122000C60ADD2351F09058A2EA2AED3FE049ECCE
:101230005FE3D0785D270E945908DF910C946C0A17
:101240000E940A0A08F481E008950E9439090C946A
:101250006C0A0E94650A58F00E945E0A40F029F468
:101260005F3F29F00C942E0A51110C94A00A0C94A3
:10127000340A0E947D0A68F39923B1F3552391F350
:10128000951B550BBB27AA2762177307840738F0F5
:101290009F5F5F4F220F331F441FAA1FA9F335D052
:1012A0000E2E3AF0E0E832D091505040E695001C06
:1012B000CAF72BD0FE2F29D0660F771F881FBB1FC0
:1012C000261737074807AB07B0E809F0BB0B802D9E
:1012D000BF01FF2793585F4F3AF09E3F510578F0CA
:1012E0000C942E0A0C94A00A5F3FE4F3983ED4F3CA
:1012F000869577956795B795F7959F5FC9F7880F9E
:10130000911D9695879597F90895E1E0660F771FEF
:10131000881FBB1F621773078407BA0720F0621B80
:10132000730B840BBA0BEE1F88F7E09508950E94AB
:101330009E096894B1110C94A00A08950E94850A30
:1013400088F09F5798F0B92F9927B751B0F0E1F086
:10135000660F771F881F991F1AF0BA95C9F714C036
:10136000B13091F00E949F0AB1E008950C949F0A59
:10137000672F782F8827B85F39F0B93FCCF386956F
:1013800077956795B395D9F73EF4909580957095CC
:1013900061957F4F8F4F9F4F0895E89409C097FB49
:1013A0003EF490958095709561957F4F8F4F9F4F3C
:1013B0009923A9F0F92F96E9BB279395F695879580
:1013C00077956795B795F111F8CFFAF4BB0F11F443
:1013D00060FF1BC06F5F7F4F8F4F9F4F16C08823EA
:1013E00011F096E911C0772321F09EE8872F762F20
:1013F00005C0662371F096E8862F70E060E02AF061
:101400009A95660F771F881FDAF7880F969587954C
:1014100097F90895990F0008550FAA0BE0E8FEEF21
:1014200016161706E807F907C0F012161306E407A8
:10143000F50798F0621B730B840B950B39F40A26A1
:1014400061F0232B242B252B21F408950A2609F47F
:10145000A140A6958FEF811D811D089597F99F6783
:1014600080E870E060E008959FEF80EC0895DF93DE
:10147000CF931F930F93FF92EF92DF927B018C012A
:10148000689406C0DA2EEF010E94C60AFE01E894B5
:10149000A5912591359145915591A6F3EF010E94B3
:1014A0005908FE019701A801DA9469F7DF90EF90DF
:1014B000FF900F911F91CF91DF91089500240A941E
:1014C0001616170618060906089500240A9412161F
:1014D0001306140605060895092E0394000C11F452
:1014E000882352F0BB0F40F4BF2B11F460FF04C0FF
:1014F0006F5F7F4F8F4F9F4F089557FD9058440F58
:10150000551F59F05F3F71F04795880F97FB991F62
:1015100061F09F3F79F0879508951216130614061F
:10152000551FF2CF4695F1DF08C0161617061806AC
:10153000991FF1CF86957105610508940895E89487
:10154000BB2766277727CB0197F908950E940A0ADF
:1015500008F48FEF08959B01AC0160E070E080E833
:101560009FE30C9425090E94C60A0C946C0A0E9401
:101570005E0A38F00E94650A20F0952311F00C9461
:101580002E0A0C94340A11240C94A00A0E947D0A9D
:1015900070F3959FC1F3950F50E0551F629FF001C6
:1015A000729FBB27F00DB11D639FAA27F00DB11DDF
:1015B000AA1F649F6627B00DA11D661F829F222768
:1015C000B00DA11D621F739FB00DA11D621F839FEF
:1015D000A00D611D221F749F3327A00D611D231FC5
:1015E000849F600D211D822F762F6A2F11249F5713
:1015F00050409AF0F1F088234AF0EE0FFF1FBB1F16
:10160000661F771F881F91505040A9F79E3F5105D4
:1016100080F00C942E0A0C94A00A5F3FE4F3983EED
:10162000D4F3869577956795B795F795E7959F5F7E
:10163000C1F7FE2B880F911D9695879597F9089510
:0C1640009B01AC010C94B30AF894FFCF9E
:02164C0001009B
:00000001FF
